{
  "address": "0xF3682fcb801aD48D0088aA7EC3641F15171696e3",
  "abi": [
    {
      "inputs": [
        {
          "internalType": "string",
          "name": "_baseURI",
          "type": "string"
        }
      ],
      "stateMutability": "nonpayable",
      "type": "constructor"
    },
    {
      "anonymous": false,
      "inputs": [
        {
          "indexed": true,
          "internalType": "address",
          "name": "owner",
          "type": "address"
        },
        {
          "indexed": true,
          "internalType": "address",
          "name": "approved",
          "type": "address"
        },
        {
          "indexed": true,
          "internalType": "uint256",
          "name": "tokenId",
          "type": "uint256"
        }
      ],
      "name": "Approval",
      "type": "event"
    },
    {
      "anonymous": false,
      "inputs": [
        {
          "indexed": true,
          "internalType": "address",
          "name": "owner",
          "type": "address"
        },
        {
          "indexed": true,
          "internalType": "address",
          "name": "operator",
          "type": "address"
        },
        {
          "indexed": false,
          "internalType": "bool",
          "name": "approved",
          "type": "bool"
        }
      ],
      "name": "ApprovalForAll",
      "type": "event"
    },
    {
      "anonymous": false,
      "inputs": [
        {
          "indexed": true,
          "internalType": "address",
          "name": "from",
          "type": "address"
        },
        {
          "indexed": true,
          "internalType": "address",
          "name": "to",
          "type": "address"
        },
        {
          "indexed": true,
          "internalType": "uint256",
          "name": "tokenId",
          "type": "uint256"
        }
      ],
      "name": "Transfer",
      "type": "event"
    },
    {
      "inputs": [],
      "name": "PRICE_TOKEN",
      "outputs": [
        {
          "internalType": "uint256",
          "name": "",
          "type": "uint256"
        }
      ],
      "stateMutability": "view",
      "type": "function"
    },
    {
      "inputs": [
        {
          "internalType": "address",
          "name": "to",
          "type": "address"
        },
        {
          "internalType": "uint256",
          "name": "tokenId",
          "type": "uint256"
        }
      ],
      "name": "approve",
      "outputs": [],
      "stateMutability": "nonpayable",
      "type": "function"
    },
    {
      "inputs": [
        {
          "internalType": "address",
          "name": "owner",
          "type": "address"
        }
      ],
      "name": "balanceOf",
      "outputs": [
        {
          "internalType": "uint256",
          "name": "",
          "type": "uint256"
        }
      ],
      "stateMutability": "view",
      "type": "function"
    },
    {
      "inputs": [
        {
          "internalType": "uint256",
          "name": "tokenId",
          "type": "uint256"
        }
      ],
      "name": "getApproved",
      "outputs": [
        {
          "internalType": "address",
          "name": "",
          "type": "address"
        }
      ],
      "stateMutability": "view",
      "type": "function"
    },
    {
      "inputs": [
        {
          "internalType": "address",
          "name": "owner",
          "type": "address"
        },
        {
          "internalType": "address",
          "name": "operator",
          "type": "address"
        }
      ],
      "name": "isApprovedForAll",
      "outputs": [
        {
          "internalType": "bool",
          "name": "",
          "type": "bool"
        }
      ],
      "stateMutability": "view",
      "type": "function"
    },
    {
      "inputs": [],
      "name": "mint",
      "outputs": [],
      "stateMutability": "nonpayable",
      "type": "function"
    },
    {
      "inputs": [],
      "name": "name",
      "outputs": [
        {
          "internalType": "string",
          "name": "",
          "type": "string"
        }
      ],
      "stateMutability": "view",
      "type": "function"
    },
    {
      "inputs": [
        {
          "internalType": "uint256",
          "name": "tokenId",
          "type": "uint256"
        }
      ],
      "name": "ownerOf",
      "outputs": [
        {
          "internalType": "address",
          "name": "",
          "type": "address"
        }
      ],
      "stateMutability": "view",
      "type": "function"
    },
    {
      "inputs": [
        {
          "internalType": "address",
          "name": "from",
          "type": "address"
        },
        {
          "internalType": "address",
          "name": "to",
          "type": "address"
        },
        {
          "internalType": "uint256",
          "name": "tokenId",
          "type": "uint256"
        }
      ],
      "name": "safeTransferFrom",
      "outputs": [],
      "stateMutability": "nonpayable",
      "type": "function"
    },
    {
      "inputs": [
        {
          "internalType": "address",
          "name": "from",
          "type": "address"
        },
        {
          "internalType": "address",
          "name": "to",
          "type": "address"
        },
        {
          "internalType": "uint256",
          "name": "tokenId",
          "type": "uint256"
        },
        {
          "internalType": "bytes",
          "name": "data",
          "type": "bytes"
        }
      ],
      "name": "safeTransferFrom",
      "outputs": [],
      "stateMutability": "nonpayable",
      "type": "function"
    },
    {
      "inputs": [
        {
          "internalType": "address",
          "name": "operator",
          "type": "address"
        },
        {
          "internalType": "bool",
          "name": "approved",
          "type": "bool"
        }
      ],
      "name": "setApprovalForAll",
      "outputs": [],
      "stateMutability": "nonpayable",
      "type": "function"
    },
    {
      "inputs": [
        {
          "internalType": "string",
          "name": "_baseURI",
          "type": "string"
        }
      ],
      "name": "setBaseURI",
      "outputs": [],
      "stateMutability": "nonpayable",
      "type": "function"
    },
    {
      "inputs": [
        {
          "internalType": "bytes4",
          "name": "interfaceId",
          "type": "bytes4"
        }
      ],
      "name": "supportsInterface",
      "outputs": [
        {
          "internalType": "bool",
          "name": "",
          "type": "bool"
        }
      ],
      "stateMutability": "view",
      "type": "function"
    },
    {
      "inputs": [],
      "name": "symbol",
      "outputs": [
        {
          "internalType": "string",
          "name": "",
          "type": "string"
        }
      ],
      "stateMutability": "view",
      "type": "function"
    },
    {
      "inputs": [
        {
          "internalType": "uint256",
          "name": "tokenId",
          "type": "uint256"
        }
      ],
      "name": "tokenURI",
      "outputs": [
        {
          "internalType": "string",
          "name": "",
          "type": "string"
        }
      ],
      "stateMutability": "view",
      "type": "function"
    },
    {
      "inputs": [
        {
          "internalType": "address",
          "name": "from",
          "type": "address"
        },
        {
          "internalType": "address",
          "name": "to",
          "type": "address"
        },
        {
          "internalType": "uint256",
          "name": "tokenId",
          "type": "uint256"
        }
      ],
      "name": "transferFrom",
      "outputs": [],
      "stateMutability": "nonpayable",
      "type": "function"
    }
  ],
  "transactionHash": "0x24d13c5309dd6af17aa8c070c0a14854bb1570d098d538546d9f4d02060fb165",
  "args": [
    "https://ipfs.io/ipfs/bafkreifd3ypvs22cv2fpvydctb4epl5aw336jqhmhpbo3npom57r72o5j4"
  ],
  "numDeployments": 1,
  "solcInputHash": "6ca8242df65ad25961c140f2c2822d7d",
  "bytecode": "0x60806040523480156200001157600080fd5b506040516200309338038062003093833981810160405281019062000037919062000275565b6040518060400160405280600781526020017f4d6f636b373231000000000000000000000000000000000000000000000000008152506040518060400160405280600481526020017f4d373231000000000000000000000000000000000000000000000000000000008152508160009081620000b4919062000511565b508060019081620000c6919062000511565b5050508060079081620000da919062000511565b5050620005f8565b6000604051905090565b600080fd5b600080fd5b600080fd5b600080fd5b6000601f19601f8301169050919050565b7f4e487b7100000000000000000000000000000000000000000000000000000000600052604160045260246000fd5b6200014b8262000100565b810181811067ffffffffffffffff821117156200016d576200016c62000111565b5b80604052505050565b600062000182620000e2565b905062000190828262000140565b919050565b600067ffffffffffffffff821115620001b357620001b262000111565b5b620001be8262000100565b9050602081019050919050565b60005b83811015620001eb578082015181840152602081019050620001ce565b60008484015250505050565b60006200020e620002088462000195565b62000176565b9050828152602081018484840111156200022d576200022c620000fb565b5b6200023a848285620001cb565b509392505050565b600082601f8301126200025a5762000259620000f6565b5b81516200026c848260208601620001f7565b91505092915050565b6000602082840312156200028e576200028d620000ec565b5b600082015167ffffffffffffffff811115620002af57620002ae620000f1565b5b620002bd8482850162000242565b91505092915050565b600081519050919050565b7f4e487b7100000000000000000000000000000000000000000000000000000000600052602260045260246000fd5b600060028204905060018216806200031957607f821691505b6020821081036200032f576200032e620002d1565b5b50919050565b60008190508160005260206000209050919050565b60006020601f8301049050919050565b600082821b905092915050565b600060088302620003997fffffffffffffffffffffffffffffffffffffffffffffffffffffffffffffffff826200035a565b620003a586836200035a565b95508019841693508086168417925050509392505050565b6000819050919050565b6000819050919050565b6000620003f2620003ec620003e684620003bd565b620003c7565b620003bd565b9050919050565b6000819050919050565b6200040e83620003d1565b620004266200041d82620003f9565b84845462000367565b825550505050565b600090565b6200043d6200042e565b6200044a81848462000403565b505050565b5b8181101562000472576200046660008262000433565b60018101905062000450565b5050565b601f821115620004c1576200048b8162000335565b62000496846200034a565b81016020851015620004a6578190505b620004be620004b5856200034a565b8301826200044f565b50505b505050565b600082821c905092915050565b6000620004e660001984600802620004c6565b1980831691505092915050565b6000620005018383620004d3565b9150826002028217905092915050565b6200051c82620002c6565b67ffffffffffffffff81111562000538576200053762000111565b5b62000544825462000300565b6200055182828562000476565b600060209050601f83116001811462000589576000841562000574578287015190505b620005808582620004f3565b865550620005f0565b601f198416620005998662000335565b60005b82811015620005c3578489015182556001820191506020850194506020810190506200059c565b86831015620005e35784890151620005df601f891682620004d3565b8355505b6001600288020188555050505b505050505050565b612a8b80620006086000396000f3fe608060405234801561001057600080fd5b50600436106101005760003560e01c806355f804b311610097578063a22cb46511610066578063a22cb46514610299578063b88d4fde146102b5578063c87b56dd146102d1578063e985e9c51461030157610100565b806355f804b3146101ff5780636352211e1461021b57806370a082311461024b57806395d89b411461027b57610100565b80631249c58b116100d35780631249c58b1461019f5780632205108f146101a957806323b872dd146101c757806342842e0e146101e357610100565b806301ffc9a71461010557806306fdde0314610135578063081812fc14610153578063095ea7b314610183575b600080fd5b61011f600480360381019061011a9190611988565b610331565b60405161012c91906119d0565b60405180910390f35b61013d610413565b60405161014a9190611a7b565b60405180910390f35b61016d60048036038101906101689190611ad3565b6104a5565b60405161017a9190611b41565b60405180910390f35b61019d60048036038101906101989190611b88565b6104eb565b005b6101a7610602565b005b6101b1610627565b6040516101be9190611bd7565b60405180910390f35b6101e160048036038101906101dc9190611bf2565b610632565b005b6101fd60048036038101906101f89190611bf2565b610692565b005b61021960048036038101906102149190611d7a565b6106b2565b005b61023560048036038101906102309190611ad3565b6106c5565b6040516102429190611b41565b60405180910390f35b61026560048036038101906102609190611dc3565b61074b565b6040516102729190611bd7565b60405180910390f35b610283610802565b6040516102909190611a7b565b60405180910390f35b6102b360048036038101906102ae9190611e1c565b610894565b005b6102cf60048036038101906102ca9190611efd565b6108aa565b005b6102eb60048036038101906102e69190611ad3565b61090c565b6040516102f89190611a7b565b60405180910390f35b61031b60048036038101906103169190611f80565b610974565b60405161032891906119d0565b60405180910390f35b60007f80ac58cd000000000000000000000000000000000000000000000000000000007bffffffffffffffffffffffffffffffffffffffffffffffffffffffff1916827bffffffffffffffffffffffffffffffffffffffffffffffffffffffff191614806103fc57507f5b5e139f000000000000000000000000000000000000000000000000000000007bffffffffffffffffffffffffffffffffffffffffffffffffffffffff1916827bffffffffffffffffffffffffffffffffffffffffffffffffffffffff1916145b8061040c575061040b82610a08565b5b9050919050565b60606000805461042290611fef565b80601f016020809104026020016040519081016040528092919081815260200182805461044e90611fef565b801561049b5780601f106104705761010080835404028352916020019161049b565b820191906000526020600020905b81548152906001019060200180831161047e57829003601f168201915b5050505050905090565b60006104b082610a72565b6004600083815260200190815260200160002060009054906101000a900473ffffffffffffffffffffffffffffffffffffffff169050919050565b60006104f6826106c5565b90508073ffffffffffffffffffffffffffffffffffffffff168373ffffffffffffffffffffffffffffffffffffffff1603610566576040517f08c379a000000000000000000000000000000000000000000000000000000000815260040161055d90612092565b60405180910390fd5b8073ffffffffffffffffffffffffffffffffffffffff16610585610abd565b73ffffffffffffffffffffffffffffffffffffffff1614806105b457506105b3816105ae610abd565b610974565b5b6105f3576040517f08c379a00000000000000000000000000000000000000000000000000000000081526004016105ea90612124565b60405180910390fd5b6105fd8383610ac5565b505050565b600061060e6006610b7e565b905061061a6006610b8c565b6106243382610ba2565b50565b66038d7ea4c6800081565b61064361063d610abd565b82610dbf565b610682576040517f08c379a0000000000000000000000000000000000000000000000000000000008152600401610679906121b6565b60405180910390fd5b61068d838383610e54565b505050565b6106ad838383604051806020016040528060008152506108aa565b505050565b80600790816106c19190612382565b5050565b6000806106d18361114d565b9050600073ffffffffffffffffffffffffffffffffffffffff168173ffffffffffffffffffffffffffffffffffffffff1603610742576040517f08c379a0000000000000000000000000000000000000000000000000000000008152600401610739906124a0565b60405180910390fd5b80915050919050565b60008073ffffffffffffffffffffffffffffffffffffffff168273ffffffffffffffffffffffffffffffffffffffff16036107bb576040517f08c379a00000000000000000000000000000000000000000000000000000000081526004016107b290612532565b60405180910390fd5b600360008373ffffffffffffffffffffffffffffffffffffffff1673ffffffffffffffffffffffffffffffffffffffff168152602001908152602001600020549050919050565b60606001805461081190611fef565b80601f016020809104026020016040519081016040528092919081815260200182805461083d90611fef565b801561088a5780601f1061085f5761010080835404028352916020019161088a565b820191906000526020600020905b81548152906001019060200180831161086d57829003601f168201915b5050505050905090565b6108a661089f610abd565b838361118a565b5050565b6108bb6108b5610abd565b83610dbf565b6108fa576040517f08c379a00000000000000000000000000000000000000000000000000000000081526004016108f1906121b6565b60405180910390fd5b610906848484846112f6565b50505050565b606061091782610a72565b6000610921611352565b90506000815111610941576040518060200160405280600081525061096c565b8061094b846113e4565b60405160200161095c92919061258e565b6040516020818303038152906040525b915050919050565b6000600560008473ffffffffffffffffffffffffffffffffffffffff1673ffffffffffffffffffffffffffffffffffffffff16815260200190815260200160002060008373ffffffffffffffffffffffffffffffffffffffff1673ffffffffffffffffffffffffffffffffffffffff16815260200190815260200160002060009054906101000a900460ff16905092915050565b60007f01ffc9a7000000000000000000000000000000000000000000000000000000007bffffffffffffffffffffffffffffffffffffffffffffffffffffffff1916827bffffffffffffffffffffffffffffffffffffffffffffffffffffffff1916149050919050565b610a7b816114b2565b610aba576040517f08c379a0000000000000000000000000000000000000000000000000000000008152600401610ab1906124a0565b60405180910390fd5b50565b600033905090565b816004600083815260200190815260200160002060006101000a81548173ffffffffffffffffffffffffffffffffffffffff021916908373ffffffffffffffffffffffffffffffffffffffff160217905550808273ffffffffffffffffffffffffffffffffffffffff16610b38836106c5565b73ffffffffffffffffffffffffffffffffffffffff167f8c5be1e5ebec7d5bd14f71427d1e84f3dd0314c0f7b2291e5b200ac8c7c3b92560405160405180910390a45050565b600081600001549050919050565b6001816000016000828254019250508190555050565b600073ffffffffffffffffffffffffffffffffffffffff168273ffffffffffffffffffffffffffffffffffffffff1603610c11576040517f08c379a0000000000000000000000000000000000000000000000000000000008152600401610c08906125fe565b60405180910390fd5b610c1a816114b2565b15610c5a576040517f08c379a0000000000000000000000000000000000000000000000000000000008152600401610c519061266a565b60405180910390fd5b610c686000838360016114f3565b610c71816114b2565b15610cb1576040517f08c379a0000000000000000000000000000000000000000000000000000000008152600401610ca89061266a565b60405180910390fd5b6001600360008473ffffffffffffffffffffffffffffffffffffffff1673ffffffffffffffffffffffffffffffffffffffff16815260200190815260200160002060008282540192505081905550816002600083815260200190815260200160002060006101000a81548173ffffffffffffffffffffffffffffffffffffffff021916908373ffffffffffffffffffffffffffffffffffffffff160217905550808273ffffffffffffffffffffffffffffffffffffffff16600073ffffffffffffffffffffffffffffffffffffffff167fddf252ad1be2c89b69c2b068fc378daa952ba7f163c4a11628f55a4df523b3ef60405160405180910390a4610dbb600083836001611619565b5050565b600080610dcb836106c5565b90508073ffffffffffffffffffffffffffffffffffffffff168473ffffffffffffffffffffffffffffffffffffffff161480610e0d5750610e0c8185610974565b5b80610e4b57508373ffffffffffffffffffffffffffffffffffffffff16610e33846104a5565b73ffffffffffffffffffffffffffffffffffffffff16145b91505092915050565b8273ffffffffffffffffffffffffffffffffffffffff16610e74826106c5565b73ffffffffffffffffffffffffffffffffffffffff1614610eca576040517f08c379a0000000000000000000000000000000000000000000000000000000008152600401610ec1906126fc565b60405180910390fd5b600073ffffffffffffffffffffffffffffffffffffffff168273ffffffffffffffffffffffffffffffffffffffff1603610f39576040517f08c379a0000000000000000000000000000000000000000000000000000000008152600401610f309061278e565b60405180910390fd5b610f4683838360016114f3565b8273ffffffffffffffffffffffffffffffffffffffff16610f66826106c5565b73ffffffffffffffffffffffffffffffffffffffff1614610fbc576040517f08c379a0000000000000000000000000000000000000000000000000000000008152600401610fb3906126fc565b60405180910390fd5b6004600082815260200190815260200160002060006101000a81549073ffffffffffffffffffffffffffffffffffffffff02191690556001600360008573ffffffffffffffffffffffffffffffffffffffff1673ffffffffffffffffffffffffffffffffffffffff168152602001908152602001600020600082825403925050819055506001600360008473ffffffffffffffffffffffffffffffffffffffff1673ffffffffffffffffffffffffffffffffffffffff16815260200190815260200160002060008282540192505081905550816002600083815260200190815260200160002060006101000a81548173ffffffffffffffffffffffffffffffffffffffff021916908373ffffffffffffffffffffffffffffffffffffffff160217905550808273ffffffffffffffffffffffffffffffffffffffff168473ffffffffffffffffffffffffffffffffffffffff167fddf252ad1be2c89b69c2b068fc378daa952ba7f163c4a11628f55a4df523b3ef60405160405180910390a46111488383836001611619565b505050565b60006002600083815260200190815260200160002060009054906101000a900473ffffffffffffffffffffffffffffffffffffffff169050919050565b8173ffffffffffffffffffffffffffffffffffffffff168373ffffffffffffffffffffffffffffffffffffffff16036111f8576040517f08c379a00000000000000000000000000000000000000000000000000000000081526004016111ef906127fa565b60405180910390fd5b80600560008573ffffffffffffffffffffffffffffffffffffffff1673ffffffffffffffffffffffffffffffffffffffff16815260200190815260200160002060008473ffffffffffffffffffffffffffffffffffffffff1673ffffffffffffffffffffffffffffffffffffffff16815260200190815260200160002060006101000a81548160ff0219169083151502179055508173ffffffffffffffffffffffffffffffffffffffff168373ffffffffffffffffffffffffffffffffffffffff167f17307eab39ab6107e8899845ad3d59bd9653f200f220920489ca2b5937696c31836040516112e991906119d0565b60405180910390a3505050565b611301848484610e54565b61130d8484848461161f565b61134c576040517f08c379a00000000000000000000000000000000000000000000000000000000081526004016113439061288c565b60405180910390fd5b50505050565b60606007805461136190611fef565b80601f016020809104026020016040519081016040528092919081815260200182805461138d90611fef565b80156113da5780601f106113af576101008083540402835291602001916113da565b820191906000526020600020905b8154815290600101906020018083116113bd57829003601f168201915b5050505050905090565b6060600060016113f3846117a6565b01905060008167ffffffffffffffff81111561141257611411611c4f565b5b6040519080825280601f01601f1916602001820160405280156114445781602001600182028036833780820191505090505b509050600082602001820190505b6001156114a7578080600190039150507f3031323334353637383961626364656600000000000000000000000000000000600a86061a8153600a858161149b5761149a6128ac565b5b04945060008503611452575b819350505050919050565b60008073ffffffffffffffffffffffffffffffffffffffff166114d48361114d565b73ffffffffffffffffffffffffffffffffffffffff1614159050919050565b600181111561161357600073ffffffffffffffffffffffffffffffffffffffff168473ffffffffffffffffffffffffffffffffffffffff16146115875780600360008673ffffffffffffffffffffffffffffffffffffffff1673ffffffffffffffffffffffffffffffffffffffff168152602001908152602001600020600082825461157f919061290a565b925050819055505b600073ffffffffffffffffffffffffffffffffffffffff168373ffffffffffffffffffffffffffffffffffffffff16146116125780600360008573ffffffffffffffffffffffffffffffffffffffff1673ffffffffffffffffffffffffffffffffffffffff168152602001908152602001600020600082825461160a919061293e565b925050819055505b5b50505050565b50505050565b60006116408473ffffffffffffffffffffffffffffffffffffffff166118f9565b15611799578373ffffffffffffffffffffffffffffffffffffffff1663150b7a02611669610abd565b8786866040518563ffffffff1660e01b815260040161168b94939291906129c7565b6020604051808303816000875af19250505080156116c757506040513d601f19601f820116820180604052508101906116c49190612a28565b60015b611749573d80600081146116f7576040519150601f19603f3d011682016040523d82523d6000602084013e6116fc565b606091505b506000815103611741576040517f08c379a00000000000000000000000000000000000000000000000000000000081526004016117389061288c565b60405180910390fd5b805181602001fd5b63150b7a0260e01b7bffffffffffffffffffffffffffffffffffffffffffffffffffffffff1916817bffffffffffffffffffffffffffffffffffffffffffffffffffffffff19161491505061179e565b600190505b949350505050565b600080600090507a184f03e93ff9f4daa797ed6e38ed64bf6a1f0100000000000000008310611804577a184f03e93ff9f4daa797ed6e38ed64bf6a1f01000000000000000083816117fa576117f96128ac565b5b0492506040810190505b6d04ee2d6d415b85acef81000000008310611841576d04ee2d6d415b85acef81000000008381611837576118366128ac565b5b0492506020810190505b662386f26fc10000831061187057662386f26fc100008381611866576118656128ac565b5b0492506010810190505b6305f5e1008310611899576305f5e100838161188f5761188e6128ac565b5b0492506008810190505b61271083106118be5761271083816118b4576118b36128ac565b5b0492506004810190505b606483106118e157606483816118d7576118d66128ac565b5b0492506002810190505b600a83106118f0576001810190505b80915050919050565b6000808273ffffffffffffffffffffffffffffffffffffffff163b119050919050565b6000604051905090565b600080fd5b600080fd5b60007fffffffff0000000000000000000000000000000000000000000000000000000082169050919050565b61196581611930565b811461197057600080fd5b50565b6000813590506119828161195c565b92915050565b60006020828403121561199e5761199d611926565b5b60006119ac84828501611973565b91505092915050565b60008115159050919050565b6119ca816119b5565b82525050565b60006020820190506119e560008301846119c1565b92915050565b600081519050919050565b600082825260208201905092915050565b60005b83811015611a25578082015181840152602081019050611a0a565b60008484015250505050565b6000601f19601f8301169050919050565b6000611a4d826119eb565b611a5781856119f6565b9350611a67818560208601611a07565b611a7081611a31565b840191505092915050565b60006020820190508181036000830152611a958184611a42565b905092915050565b6000819050919050565b611ab081611a9d565b8114611abb57600080fd5b50565b600081359050611acd81611aa7565b92915050565b600060208284031215611ae957611ae8611926565b5b6000611af784828501611abe565b91505092915050565b600073ffffffffffffffffffffffffffffffffffffffff82169050919050565b6000611b2b82611b00565b9050919050565b611b3b81611b20565b82525050565b6000602082019050611b566000830184611b32565b92915050565b611b6581611b20565b8114611b7057600080fd5b50565b600081359050611b8281611b5c565b92915050565b60008060408385031215611b9f57611b9e611926565b5b6000611bad85828601611b73565b9250506020611bbe85828601611abe565b9150509250929050565b611bd181611a9d565b82525050565b6000602082019050611bec6000830184611bc8565b92915050565b600080600060608486031215611c0b57611c0a611926565b5b6000611c1986828701611b73565b9350506020611c2a86828701611b73565b9250506040611c3b86828701611abe565b9150509250925092565b600080fd5b600080fd5b7f4e487b7100000000000000000000000000000000000000000000000000000000600052604160045260246000fd5b611c8782611a31565b810181811067ffffffffffffffff82111715611ca657611ca5611c4f565b5b80604052505050565b6000611cb961191c565b9050611cc58282611c7e565b919050565b600067ffffffffffffffff821115611ce557611ce4611c4f565b5b611cee82611a31565b9050602081019050919050565b82818337600083830152505050565b6000611d1d611d1884611cca565b611caf565b905082815260208101848484011115611d3957611d38611c4a565b5b611d44848285611cfb565b509392505050565b600082601f830112611d6157611d60611c45565b5b8135611d71848260208601611d0a565b91505092915050565b600060208284031215611d9057611d8f611926565b5b600082013567ffffffffffffffff811115611dae57611dad61192b565b5b611dba84828501611d4c565b91505092915050565b600060208284031215611dd957611dd8611926565b5b6000611de784828501611b73565b91505092915050565b611df9816119b5565b8114611e0457600080fd5b50565b600081359050611e1681611df0565b92915050565b60008060408385031215611e3357611e32611926565b5b6000611e4185828601611b73565b9250506020611e5285828601611e07565b9150509250929050565b600067ffffffffffffffff821115611e7757611e76611c4f565b5b611e8082611a31565b9050602081019050919050565b6000611ea0611e9b84611e5c565b611caf565b905082815260208101848484011115611ebc57611ebb611c4a565b5b611ec7848285611cfb565b509392505050565b600082601f830112611ee457611ee3611c45565b5b8135611ef4848260208601611e8d565b91505092915050565b60008060008060808587031215611f1757611f16611926565b5b6000611f2587828801611b73565b9450506020611f3687828801611b73565b9350506040611f4787828801611abe565b925050606085013567ffffffffffffffff811115611f6857611f6761192b565b5b611f7487828801611ecf565b91505092959194509250565b60008060408385031215611f9757611f96611926565b5b6000611fa585828601611b73565b9250506020611fb685828601611b73565b9150509250929050565b7f4e487b7100000000000000000000000000000000000000000000000000000000600052602260045260246000fd5b6000600282049050600182168061200757607f821691505b60208210810361201a57612019611fc0565b5b50919050565b7f4552433732313a20617070726f76616c20746f2063757272656e74206f776e6560008201527f7200000000000000000000000000000000000000000000000000000000000000602082015250565b600061207c6021836119f6565b915061208782612020565b604082019050919050565b600060208201905081810360008301526120ab8161206f565b9050919050565b7f4552433732313a20617070726f76652063616c6c6572206973206e6f7420746f60008201527f6b656e206f776e6572206f7220617070726f76656420666f7220616c6c000000602082015250565b600061210e603d836119f6565b9150612119826120b2565b604082019050919050565b6000602082019050818103600083015261213d81612101565b9050919050565b7f4552433732313a2063616c6c6572206973206e6f7420746f6b656e206f776e6560008201527f72206f7220617070726f76656400000000000000000000000000000000000000602082015250565b60006121a0602d836119f6565b91506121ab82612144565b604082019050919050565b600060208201905081810360008301526121cf81612193565b9050919050565b60008190508160005260206000209050919050565b60006020601f8301049050919050565b600082821b905092915050565b6000600883026122387fffffffffffffffffffffffffffffffffffffffffffffffffffffffffffffffff826121fb565b61224286836121fb565b95508019841693508086168417925050509392505050565b6000819050919050565b600061227f61227a61227584611a9d565b61225a565b611a9d565b9050919050565b6000819050919050565b61229983612264565b6122ad6122a582612286565b848454612208565b825550505050565b600090565b6122c26122b5565b6122cd818484612290565b505050565b5b818110156122f1576122e66000826122ba565b6001810190506122d3565b5050565b601f82111561233657612307816121d6565b612310846121eb565b8101602085101561231f578190505b61233361232b856121eb565b8301826122d2565b50505b505050565b600082821c905092915050565b60006123596000198460080261233b565b1980831691505092915050565b60006123728383612348565b9150826002028217905092915050565b61238b826119eb565b67ffffffffffffffff8111156123a4576123a3611c4f565b5b6123ae8254611fef565b6123b98282856122f5565b600060209050601f8311600181146123ec57600084156123da578287015190505b6123e48582612366565b86555061244c565b601f1984166123fa866121d6565b60005b82811015612422578489015182556001820191506020850194506020810190506123fd565b8683101561243f578489015161243b601f891682612348565b8355505b6001600288020188555050505b505050505050565b7f4552433732313a20696e76616c696420746f6b656e2049440000000000000000600082015250565b600061248a6018836119f6565b915061249582612454565b602082019050919050565b600060208201905081810360008301526124b98161247d565b9050919050565b7f4552433732313a2061646472657373207a65726f206973206e6f74206120766160008201527f6c6964206f776e65720000000000000000000000000000000000000000000000602082015250565b600061251c6029836119f6565b9150612527826124c0565b604082019050919050565b6000602082019050818103600083015261254b8161250f565b9050919050565b600081905092915050565b6000612568826119eb565b6125728185612552565b9350612582818560208601611a07565b80840191505092915050565b600061259a828561255d565b91506125a6828461255d565b91508190509392505050565b7f4552433732313a206d696e7420746f20746865207a65726f2061646472657373600082015250565b60006125e86020836119f6565b91506125f3826125b2565b602082019050919050565b60006020820190508181036000830152612617816125db565b9050919050565b7f4552433732313a20746f6b656e20616c7265616479206d696e74656400000000600082015250565b6000612654601c836119f6565b915061265f8261261e565b602082019050919050565b6000602082019050818103600083015261268381612647565b9050919050565b7f4552433732313a207472616e736665722066726f6d20696e636f72726563742060008201527f6f776e6572000000000000000000000000000000000000000000000000000000602082015250565b60006126e66025836119f6565b91506126f18261268a565b604082019050919050565b60006020820190508181036000830152612715816126d9565b9050919050565b7f4552433732313a207472616e7366657220746f20746865207a65726f2061646460008201527f7265737300000000000000000000000000000000000000000000000000000000602082015250565b60006127786024836119f6565b91506127838261271c565b604082019050919050565b600060208201905081810360008301526127a78161276b565b9050919050565b7f4552433732313a20617070726f766520746f2063616c6c657200000000000000600082015250565b60006127e46019836119f6565b91506127ef826127ae565b602082019050919050565b60006020820190508181036000830152612813816127d7565b9050919050565b7f4552433732313a207472616e7366657220746f206e6f6e20455243373231526560008201527f63656976657220696d706c656d656e7465720000000000000000000000000000602082015250565b60006128766032836119f6565b91506128818261281a565b604082019050919050565b600060208201905081810360008301526128a581612869565b9050919050565b7f4e487b7100000000000000000000000000000000000000000000000000000000600052601260045260246000fd5b7f4e487b7100000000000000000000000000000000000000000000000000000000600052601160045260246000fd5b600061291582611a9d565b915061292083611a9d565b9250828203905081811115612938576129376128db565b5b92915050565b600061294982611a9d565b915061295483611a9d565b925082820190508082111561296c5761296b6128db565b5b92915050565b600081519050919050565b600082825260208201905092915050565b600061299982612972565b6129a3818561297d565b93506129b3818560208601611a07565b6129bc81611a31565b840191505092915050565b60006080820190506129dc6000830187611b32565b6129e96020830186611b32565b6129f66040830185611bc8565b8181036060830152612a08818461298e565b905095945050505050565b600081519050612a228161195c565b92915050565b600060208284031215612a3e57612a3d611926565b5b6000612a4c84828501612a13565b9150509291505056fea26469706673582212203021995b6d1a2b9cf47346b73ecfcd61112bd90355d497469ca771529ea31e8e64736f6c63430008120033",
  "devdoc": {
    "events": {
      "Approval(address,address,uint256)": {
        "details": "Emitted when `owner` enables `approved` to manage the `tokenId` token."
      },
      "ApprovalForAll(address,address,bool)": {
        "details": "Emitted when `owner` enables or disables (`approved`) `operator` to manage all of its assets."
      },
      "Transfer(address,address,uint256)": {
        "details": "Emitted when `tokenId` token is transferred from `from` to `to`."
      }
    },
    "kind": "dev",
    "methods": {
      "approve(address,uint256)": {
        "details": "See {IERC721-approve}."
      },
      "balanceOf(address)": {
        "details": "See {IERC721-balanceOf}."
      },
      "getApproved(uint256)": {
        "details": "See {IERC721-getApproved}."
      },
      "isApprovedForAll(address,address)": {
        "details": "See {IERC721-isApprovedForAll}."
      },
      "name()": {
        "details": "See {IERC721Metadata-name}."
      },
      "ownerOf(uint256)": {
        "details": "See {IERC721-ownerOf}."
      },
      "safeTransferFrom(address,address,uint256)": {
        "details": "See {IERC721-safeTransferFrom}."
      },
      "safeTransferFrom(address,address,uint256,bytes)": {
        "details": "See {IERC721-safeTransferFrom}."
      },
      "setApprovalForAll(address,bool)": {
        "details": "See {IERC721-setApprovalForAll}."
      },
      "supportsInterface(bytes4)": {
        "details": "See {IERC165-supportsInterface}."
      },
      "symbol()": {
        "details": "See {IERC721Metadata-symbol}."
      },
      "tokenURI(uint256)": {
        "details": "See {IERC721Metadata-tokenURI}."
      },
      "transferFrom(address,address,uint256)": {
        "details": "See {IERC721-transferFrom}."
      }
    },
    "version": 1
  },
  "userdoc": {
    "kind": "user",
    "methods": {},
    "version": 1
  },
  "storageLayout": {
    "storage": [
      {
        "astId": 2243,
        "contract": "contracts/MockERC721.sol:MockERC721",
        "label": "_name",
        "offset": 0,
        "slot": "0",
        "type": "t_string_storage"
      },
      {
        "astId": 2245,
        "contract": "contracts/MockERC721.sol:MockERC721",
        "label": "_symbol",
        "offset": 0,
        "slot": "1",
        "type": "t_string_storage"
      },
      {
        "astId": 2249,
        "contract": "contracts/MockERC721.sol:MockERC721",
        "label": "_owners",
        "offset": 0,
        "slot": "2",
        "type": "t_mapping(t_uint256,t_address)"
      },
      {
        "astId": 2253,
        "contract": "contracts/MockERC721.sol:MockERC721",
        "label": "_balances",
        "offset": 0,
        "slot": "3",
        "type": "t_mapping(t_address,t_uint256)"
      },
      {
        "astId": 2257,
        "contract": "contracts/MockERC721.sol:MockERC721",
        "label": "_tokenApprovals",
        "offset": 0,
        "slot": "4",
        "type": "t_mapping(t_uint256,t_address)"
      },
      {
        "astId": 2263,
        "contract": "contracts/MockERC721.sol:MockERC721",
        "label": "_operatorApprovals",
        "offset": 0,
        "slot": "5",
        "type": "t_mapping(t_address,t_mapping(t_address,t_bool))"
      },
      {
        "astId": 6472,
        "contract": "contracts/MockERC721.sol:MockERC721",
        "label": "_tokenIds",
        "offset": 0,
        "slot": "6",
        "type": "t_struct(Counter)3681_storage"
      },
      {
        "astId": 6477,
        "contract": "contracts/MockERC721.sol:MockERC721",
        "label": "baseURI",
        "offset": 0,
        "slot": "7",
        "type": "t_string_storage"
      },
      {
        "astId": 6481,
        "contract": "contracts/MockERC721.sol:MockERC721",
        "label": "_tokenImageURIs",
        "offset": 0,
        "slot": "8",
        "type": "t_mapping(t_uint256,t_string_storage)"
      }
    ],
    "types": {
      "t_address": {
        "encoding": "inplace",
        "label": "address",
        "numberOfBytes": "20"
      },
      "t_bool": {
        "encoding": "inplace",
        "label": "bool",
        "numberOfBytes": "1"
      },
      "t_mapping(t_address,t_bool)": {
        "encoding": "mapping",
        "key": "t_address",
        "label": "mapping(address => bool)",
        "numberOfBytes": "32",
        "value": "t_bool"
      },
      "t_mapping(t_address,t_mapping(t_address,t_bool))": {
        "encoding": "mapping",
        "key": "t_address",
        "label": "mapping(address => mapping(address => bool))",
        "numberOfBytes": "32",
        "value": "t_mapping(t_address,t_bool)"
      },
      "t_mapping(t_address,t_uint256)": {
        "encoding": "mapping",
        "key": "t_address",
        "label": "mapping(address => uint256)",
        "numberOfBytes": "32",
        "value": "t_uint256"
      },
      "t_mapping(t_uint256,t_address)": {
        "encoding": "mapping",
        "key": "t_uint256",
        "label": "mapping(uint256 => address)",
        "numberOfBytes": "32",
        "value": "t_address"
      },
      "t_mapping(t_uint256,t_string_storage)": {
        "encoding": "mapping",
        "key": "t_uint256",
        "label": "mapping(uint256 => string)",
        "numberOfBytes": "32",
        "value": "t_string_storage"
      },
      "t_string_storage": {
        "encoding": "bytes",
        "label": "string",
        "numberOfBytes": "32"
      },
      "t_struct(Counter)3681_storage": {
        "encoding": "inplace",
        "label": "struct Counters.Counter",
        "members": [
          {
            "astId": 3680,
            "contract": "contracts/MockERC721.sol:MockERC721",
            "label": "_value",
            "offset": 0,
            "slot": "0",
            "type": "t_uint256"
          }
        ],
        "numberOfBytes": "32"
      },
      "t_uint256": {
        "encoding": "inplace",
        "label": "uint256",
        "numberOfBytes": "32"
      }
    }
  }
}