{
  "address": "0x52F505378872Ac171e778F92B1757f24Cb0DE0F3",
  "abi": [
    {
      "inputs": [
        {
          "internalType": "address",
          "name": "_ERC6551Registry",
          "type": "address"
        },
        {
          "internalType": "address",
          "name": "_ERC6551AccountImplementation",
          "type": "address"
        }
      ],
      "stateMutability": "nonpayable",
      "type": "constructor"
    },
    {
      "anonymous": false,
      "inputs": [
        {
          "indexed": true,
          "internalType": "address",
          "name": "owner",
          "type": "address"
        },
        {
          "indexed": true,
          "internalType": "address",
          "name": "approved",
          "type": "address"
        },
        {
          "indexed": true,
          "internalType": "uint256",
          "name": "tokenId",
          "type": "uint256"
        }
      ],
      "name": "Approval",
      "type": "event"
    },
    {
      "anonymous": false,
      "inputs": [
        {
          "indexed": true,
          "internalType": "address",
          "name": "owner",
          "type": "address"
        },
        {
          "indexed": true,
          "internalType": "address",
          "name": "operator",
          "type": "address"
        },
        {
          "indexed": false,
          "internalType": "bool",
          "name": "approved",
          "type": "bool"
        }
      ],
      "name": "ApprovalForAll",
      "type": "event"
    },
    {
      "anonymous": false,
      "inputs": [
        {
          "indexed": false,
          "internalType": "uint256",
          "name": "_fromTokenId",
          "type": "uint256"
        },
        {
          "indexed": false,
          "internalType": "uint256",
          "name": "_toTokenId",
          "type": "uint256"
        }
      ],
      "name": "BatchMetadataUpdate",
      "type": "event"
    },
    {
      "anonymous": false,
      "inputs": [
        {
          "indexed": false,
          "internalType": "uint256",
          "name": "_tokenId",
          "type": "uint256"
        }
      ],
      "name": "MetadataUpdate",
      "type": "event"
    },
    {
      "anonymous": false,
      "inputs": [
        {
          "indexed": true,
          "internalType": "address",
          "name": "previousOwner",
          "type": "address"
        },
        {
          "indexed": true,
          "internalType": "address",
          "name": "newOwner",
          "type": "address"
        }
      ],
      "name": "OwnershipTransferred",
      "type": "event"
    },
    {
      "anonymous": false,
      "inputs": [
        {
          "indexed": true,
          "internalType": "address",
          "name": "from",
          "type": "address"
        },
        {
          "indexed": true,
          "internalType": "address",
          "name": "to",
          "type": "address"
        },
        {
          "indexed": true,
          "internalType": "uint256",
          "name": "tokenId",
          "type": "uint256"
        }
      ],
      "name": "Transfer",
      "type": "event"
    },
    {
      "anonymous": false,
      "inputs": [
        {
          "indexed": true,
          "internalType": "uint256",
          "name": "tokenId",
          "type": "uint256"
        },
        {
          "indexed": true,
          "internalType": "address",
          "name": "user",
          "type": "address"
        },
        {
          "indexed": false,
          "internalType": "uint64",
          "name": "expires",
          "type": "uint64"
        }
      ],
      "name": "UpdateUser",
      "type": "event"
    },
    {
      "inputs": [],
      "name": "ERC6551AccountImplementation",
      "outputs": [
        {
          "internalType": "address",
          "name": "",
          "type": "address"
        }
      ],
      "stateMutability": "view",
      "type": "function"
    },
    {
      "inputs": [],
      "name": "ERC6551Registry",
      "outputs": [
        {
          "internalType": "contract IERC6551Registry",
          "name": "",
          "type": "address"
        }
      ],
      "stateMutability": "view",
      "type": "function"
    },
    {
      "inputs": [],
      "name": "PRICE_TOKEN",
      "outputs": [
        {
          "internalType": "uint256",
          "name": "",
          "type": "uint256"
        }
      ],
      "stateMutability": "view",
      "type": "function"
    },
    {
      "inputs": [
        {
          "internalType": "address",
          "name": "to",
          "type": "address"
        },
        {
          "internalType": "uint256",
          "name": "tokenId",
          "type": "uint256"
        }
      ],
      "name": "approve",
      "outputs": [],
      "stateMutability": "nonpayable",
      "type": "function"
    },
    {
      "inputs": [
        {
          "internalType": "address",
          "name": "owner",
          "type": "address"
        }
      ],
      "name": "balanceOf",
      "outputs": [
        {
          "internalType": "uint256",
          "name": "",
          "type": "uint256"
        }
      ],
      "stateMutability": "view",
      "type": "function"
    },
    {
      "inputs": [
        {
          "internalType": "uint256",
          "name": "tokenId",
          "type": "uint256"
        }
      ],
      "name": "getApproved",
      "outputs": [
        {
          "internalType": "address",
          "name": "",
          "type": "address"
        }
      ],
      "stateMutability": "view",
      "type": "function"
    },
    {
      "inputs": [
        {
          "internalType": "address",
          "name": "owner",
          "type": "address"
        },
        {
          "internalType": "address",
          "name": "operator",
          "type": "address"
        }
      ],
      "name": "isApprovedForAll",
      "outputs": [
        {
          "internalType": "bool",
          "name": "",
          "type": "bool"
        }
      ],
      "stateMutability": "view",
      "type": "function"
    },
    {
      "inputs": [],
      "name": "mint",
      "outputs": [],
      "stateMutability": "payable",
      "type": "function"
    },
    {
      "inputs": [],
      "name": "name",
      "outputs": [
        {
          "internalType": "string",
          "name": "",
          "type": "string"
        }
      ],
      "stateMutability": "view",
      "type": "function"
    },
    {
      "inputs": [],
      "name": "owner",
      "outputs": [
        {
          "internalType": "address",
          "name": "",
          "type": "address"
        }
      ],
      "stateMutability": "view",
      "type": "function"
    },
    {
      "inputs": [
        {
          "internalType": "uint256",
          "name": "tokenId",
          "type": "uint256"
        }
      ],
      "name": "ownerOf",
      "outputs": [
        {
          "internalType": "address",
          "name": "",
          "type": "address"
        }
      ],
      "stateMutability": "view",
      "type": "function"
    },
    {
      "inputs": [],
      "name": "renounceOwnership",
      "outputs": [],
      "stateMutability": "nonpayable",
      "type": "function"
    },
    {
      "inputs": [
        {
          "internalType": "address",
          "name": "from",
          "type": "address"
        },
        {
          "internalType": "address",
          "name": "to",
          "type": "address"
        },
        {
          "internalType": "uint256",
          "name": "tokenId",
          "type": "uint256"
        }
      ],
      "name": "safeTransferFrom",
      "outputs": [],
      "stateMutability": "nonpayable",
      "type": "function"
    },
    {
      "inputs": [
        {
          "internalType": "address",
          "name": "from",
          "type": "address"
        },
        {
          "internalType": "address",
          "name": "to",
          "type": "address"
        },
        {
          "internalType": "uint256",
          "name": "tokenId",
          "type": "uint256"
        },
        {
          "internalType": "bytes",
          "name": "data",
          "type": "bytes"
        }
      ],
      "name": "safeTransferFrom",
      "outputs": [],
      "stateMutability": "nonpayable",
      "type": "function"
    },
    {
      "inputs": [
        {
          "internalType": "address",
          "name": "operator",
          "type": "address"
        },
        {
          "internalType": "bool",
          "name": "approved",
          "type": "bool"
        }
      ],
      "name": "setApprovalForAll",
      "outputs": [],
      "stateMutability": "nonpayable",
      "type": "function"
    },
    {
      "inputs": [
        {
          "internalType": "uint256",
          "name": "tokenId",
          "type": "uint256"
        },
        {
          "internalType": "address",
          "name": "user",
          "type": "address"
        },
        {
          "internalType": "uint64",
          "name": "expires",
          "type": "uint64"
        }
      ],
      "name": "setUser",
      "outputs": [],
      "stateMutability": "nonpayable",
      "type": "function"
    },
    {
      "inputs": [
        {
          "internalType": "uint256",
          "name": "_tokenId",
          "type": "uint256"
        }
      ],
      "name": "showTBA",
      "outputs": [
        {
          "internalType": "address",
          "name": "",
          "type": "address"
        }
      ],
      "stateMutability": "view",
      "type": "function"
    },
    {
      "inputs": [
        {
          "internalType": "bytes4",
          "name": "interfaceId",
          "type": "bytes4"
        }
      ],
      "name": "supportsInterface",
      "outputs": [
        {
          "internalType": "bool",
          "name": "",
          "type": "bool"
        }
      ],
      "stateMutability": "view",
      "type": "function"
    },
    {
      "inputs": [],
      "name": "symbol",
      "outputs": [
        {
          "internalType": "string",
          "name": "",
          "type": "string"
        }
      ],
      "stateMutability": "view",
      "type": "function"
    },
    {
      "inputs": [
        {
          "internalType": "uint256",
          "name": "tokenId",
          "type": "uint256"
        }
      ],
      "name": "tokenURI",
      "outputs": [
        {
          "internalType": "string",
          "name": "",
          "type": "string"
        }
      ],
      "stateMutability": "view",
      "type": "function"
    },
    {
      "inputs": [
        {
          "internalType": "address",
          "name": "from",
          "type": "address"
        },
        {
          "internalType": "address",
          "name": "to",
          "type": "address"
        },
        {
          "internalType": "uint256",
          "name": "tokenId",
          "type": "uint256"
        }
      ],
      "name": "transferFrom",
      "outputs": [],
      "stateMutability": "nonpayable",
      "type": "function"
    },
    {
      "inputs": [
        {
          "internalType": "address",
          "name": "newOwner",
          "type": "address"
        }
      ],
      "name": "transferOwnership",
      "outputs": [],
      "stateMutability": "nonpayable",
      "type": "function"
    },
    {
      "inputs": [
        {
          "internalType": "uint256",
          "name": "tokenId",
          "type": "uint256"
        }
      ],
      "name": "userExpires",
      "outputs": [
        {
          "internalType": "uint256",
          "name": "",
          "type": "uint256"
        }
      ],
      "stateMutability": "view",
      "type": "function"
    },
    {
      "inputs": [
        {
          "internalType": "uint256",
          "name": "tokenId",
          "type": "uint256"
        }
      ],
      "name": "userOf",
      "outputs": [
        {
          "internalType": "address",
          "name": "",
          "type": "address"
        }
      ],
      "stateMutability": "view",
      "type": "function"
    }
  ],
  "transactionHash": "0x10865709b334f34c8cfb7807550d828b823832b09ad7a0342d1103c453bea693",
  "args": [
    "0x8515ca0dec371e640eACCFc306093CFF7EE46789",
    "0x8D2729D9807E9FdD7d648BD3045c39B80aB2E5c7"
  ],
  "numDeployments": 3,
  "solcInputHash": "0d2a9b04c2a5798c27fff76892e1b22a",
  "bytecode": "0x60806040523480156200001157600080fd5b5060405162003fd638038062003fd68339818101604052810190620000379190620002a9565b6040518060400160405280600881526020017f52656e74343930370000000000000000000000000000000000000000000000008152506040518060400160405280600581526020017f5234393037000000000000000000000000000000000000000000000000000000815250620000c3620000b76200017360201b60201c565b6200017b60201b60201c565b8160019081620000d491906200056a565b508060029081620000e691906200056a565b50505081600860006101000a81548173ffffffffffffffffffffffffffffffffffffffff021916908373ffffffffffffffffffffffffffffffffffffffff16021790555080600960006101000a81548173ffffffffffffffffffffffffffffffffffffffff021916908373ffffffffffffffffffffffffffffffffffffffff160217905550505062000651565b600033905090565b60008060009054906101000a900473ffffffffffffffffffffffffffffffffffffffff169050816000806101000a81548173ffffffffffffffffffffffffffffffffffffffff021916908373ffffffffffffffffffffffffffffffffffffffff1602179055508173ffffffffffffffffffffffffffffffffffffffff168173ffffffffffffffffffffffffffffffffffffffff167f8be0079c531659141344cd1fd0a4f28419497f9722a3daafe3b4186f6b6457e060405160405180910390a35050565b600080fd5b600073ffffffffffffffffffffffffffffffffffffffff82169050919050565b6000620002718262000244565b9050919050565b620002838162000264565b81146200028f57600080fd5b50565b600081519050620002a38162000278565b92915050565b60008060408385031215620002c357620002c26200023f565b5b6000620002d38582860162000292565b9250506020620002e68582860162000292565b9150509250929050565b600081519050919050565b7f4e487b7100000000000000000000000000000000000000000000000000000000600052604160045260246000fd5b7f4e487b7100000000000000000000000000000000000000000000000000000000600052602260045260246000fd5b600060028204905060018216806200037257607f821691505b6020821081036200038857620003876200032a565b5b50919050565b60008190508160005260206000209050919050565b60006020601f8301049050919050565b600082821b905092915050565b600060088302620003f27fffffffffffffffffffffffffffffffffffffffffffffffffffffffffffffffff82620003b3565b620003fe8683620003b3565b95508019841693508086168417925050509392505050565b6000819050919050565b6000819050919050565b60006200044b620004456200043f8462000416565b62000420565b62000416565b9050919050565b6000819050919050565b62000467836200042a565b6200047f620004768262000452565b848454620003c0565b825550505050565b600090565b6200049662000487565b620004a38184846200045c565b505050565b5b81811015620004cb57620004bf6000826200048c565b600181019050620004a9565b5050565b601f8211156200051a57620004e4816200038e565b620004ef84620003a3565b81016020851015620004ff578190505b620005176200050e85620003a3565b830182620004a8565b50505b505050565b600082821c905092915050565b60006200053f600019846008026200051f565b1980831691505092915050565b60006200055a83836200052c565b9150826002028217905092915050565b6200057582620002f0565b67ffffffffffffffff811115620005915762000590620002fb565b5b6200059d825462000359565b620005aa828285620004cf565b600060209050601f831160018114620005e25760008415620005cd578287015190505b620005d985826200054c565b86555062000649565b601f198416620005f2866200038e565b60005b828110156200061c57848901518255600182019150602085019450602081019050620005f5565b868310156200063c578489015162000638601f8916826200052c565b8355505b6001600288020188555050505b505050505050565b61397580620006616000396000f3fe60806040526004361061014b5760003560e01c8063715018a6116100b6578063b88d4fde1161006f578063b88d4fde14610485578063c2f1f14a146104ae578063c87b56dd146104eb578063e030565e14610528578063e985e9c514610551578063f2fde38b1461058e5761014b565b8063715018a6146103875780638da5cb5b1461039e5780638fc88c48146103c957806395d89b4114610406578063a22cb46514610431578063adbcef111461045a5761014b565b80632205108f116101085780632205108f1461026557806323b872dd146102905780632cecaac7146102b957806342842e0e146102e45780636352211e1461030d57806370a082311461034a5761014b565b806301ffc9a71461015057806306fdde031461018d578063081812fc146101b8578063095ea7b3146101f55780631249c58b1461021e57806321f41afd14610228575b600080fd5b34801561015c57600080fd5b5061017760048036038101906101729190612560565b6105b7565b60405161018491906125a8565b60405180910390f35b34801561019957600080fd5b506101a2610631565b6040516101af9190612653565b60405180910390f35b3480156101c457600080fd5b506101df60048036038101906101da91906126ab565b6106c3565b6040516101ec9190612719565b60405180910390f35b34801561020157600080fd5b5061021c60048036038101906102179190612760565b610709565b005b610226610820565b005b34801561023457600080fd5b5061024f600480360381019061024a91906126ab565b6108d7565b60405161025c9190612719565b60405180910390f35b34801561027157600080fd5b5061027a6109a7565b60405161028791906127af565b60405180910390f35b34801561029c57600080fd5b506102b760048036038101906102b291906127ca565b6109b2565b005b3480156102c557600080fd5b506102ce610a12565b6040516102db9190612719565b60405180910390f35b3480156102f057600080fd5b5061030b600480360381019061030691906127ca565b610a38565b005b34801561031957600080fd5b50610334600480360381019061032f91906126ab565b610a58565b6040516103419190612719565b60405180910390f35b34801561035657600080fd5b50610371600480360381019061036c919061281d565b610ade565b60405161037e91906127af565b60405180910390f35b34801561039357600080fd5b5061039c610b95565b005b3480156103aa57600080fd5b506103b3610ba9565b6040516103c09190612719565b60405180910390f35b3480156103d557600080fd5b506103f060048036038101906103eb91906126ab565b610bd2565b6040516103fd91906127af565b60405180910390f35b34801561041257600080fd5b5061041b610c10565b6040516104289190612653565b60405180910390f35b34801561043d57600080fd5b5061045860048036038101906104539190612876565b610ca2565b005b34801561046657600080fd5b5061046f610cb8565b60405161047c9190612915565b60405180910390f35b34801561049157600080fd5b506104ac60048036038101906104a79190612a65565b610cde565b005b3480156104ba57600080fd5b506104d560048036038101906104d091906126ab565b610d40565b6040516104e29190612719565b60405180910390f35b3480156104f757600080fd5b50610512600480360381019061050d91906126ab565b610dc5565b60405161051f9190612653565b60405180910390f35b34801561053457600080fd5b5061054f600480360381019061054a9190612b28565b610e2d565b005b34801561055d57600080fd5b5061057860048036038101906105739190612b7b565b611013565b60405161058591906125a8565b60405180910390f35b34801561059a57600080fd5b506105b560048036038101906105b0919061281d565b6110a7565b005b60007fad092b5c000000000000000000000000000000000000000000000000000000007bffffffffffffffffffffffffffffffffffffffffffffffffffffffff1916827bffffffffffffffffffffffffffffffffffffffffffffffffffffffff1916148061062a57506106298261112a565b5b9050919050565b60606001805461064090612bea565b80601f016020809104026020016040519081016040528092919081815260200182805461066c90612bea565b80156106b95780601f1061068e576101008083540402835291602001916106b9565b820191906000526020600020905b81548152906001019060200180831161069c57829003601f168201915b5050505050905090565b60006106ce8261120c565b6005600083815260200190815260200160002060009054906101000a900473ffffffffffffffffffffffffffffffffffffffff169050919050565b600061071482610a58565b90508073ffffffffffffffffffffffffffffffffffffffff168373ffffffffffffffffffffffffffffffffffffffff1603610784576040517f08c379a000000000000000000000000000000000000000000000000000000000815260040161077b90612c8d565b60405180910390fd5b8073ffffffffffffffffffffffffffffffffffffffff166107a3611257565b73ffffffffffffffffffffffffffffffffffffffff1614806107d257506107d1816107cc611257565b611013565b5b610811576040517f08c379a000000000000000000000000000000000000000000000000000000000815260040161080890612d1f565b60405180910390fd5b61081b838361125f565b505050565b600061082c6007611318565b90506108386007611326565b66038d7ea4c68000341015610882576040517f08c379a000000000000000000000000000000000000000000000000000000000815260040161087990612d8b565b60405180910390fd5b61088c338261133c565b61089581611559565b6108d4576040517f08c379a00000000000000000000000000000000000000000000000000000000081526004016108cb90612e1d565b60405180910390fd5b50565b6000600860009054906101000a900473ffffffffffffffffffffffffffffffffffffffff1673ffffffffffffffffffffffffffffffffffffffff16635e9bc536600960009054906101000a900473ffffffffffffffffffffffffffffffffffffffff1646308660006040518663ffffffff1660e01b815260040161095f959493929190612e78565b602060405180830381865afa15801561097c573d6000803e3d6000fd5b505050506040513d601f19601f820116820180604052508101906109a09190612ee0565b9050919050565b66038d7ea4c6800081565b6109c36109bd611257565b826116bd565b610a02576040517f08c379a00000000000000000000000000000000000000000000000000000000081526004016109f990612f7f565b60405180910390fd5b610a0d838383611752565b505050565b600960009054906101000a900473ffffffffffffffffffffffffffffffffffffffff1681565b610a5383838360405180602001604052806000815250610cde565b505050565b600080610a6483611a4b565b9050600073ffffffffffffffffffffffffffffffffffffffff168173ffffffffffffffffffffffffffffffffffffffff1603610ad5576040517f08c379a0000000000000000000000000000000000000000000000000000000008152600401610acc90612feb565b60405180910390fd5b80915050919050565b60008073ffffffffffffffffffffffffffffffffffffffff168273ffffffffffffffffffffffffffffffffffffffff1603610b4e576040517f08c379a0000000000000000000000000000000000000000000000000000000008152600401610b459061307d565b60405180910390fd5b600460008373ffffffffffffffffffffffffffffffffffffffff1673ffffffffffffffffffffffffffffffffffffffff168152602001908152602001600020549050919050565b610b9d611a88565b610ba76000611b06565b565b60008060009054906101000a900473ffffffffffffffffffffffffffffffffffffffff16905090565b6000600b600083815260200190815260200160002060000160149054906101000a900467ffffffffffffffff1667ffffffffffffffff169050919050565b606060028054610c1f90612bea565b80601f0160208091040260200160405190810160405280929190818152602001828054610c4b90612bea565b8015610c985780601f10610c6d57610100808354040283529160200191610c98565b820191906000526020600020905b815481529060010190602001808311610c7b57829003601f168201915b5050505050905090565b610cb4610cad611257565b8383611bca565b5050565b600860009054906101000a900473ffffffffffffffffffffffffffffffffffffffff1681565b610cef610ce9611257565b836116bd565b610d2e576040517f08c379a0000000000000000000000000000000000000000000000000000000008152600401610d2590612f7f565b60405180910390fd5b610d3a84848484611d36565b50505050565b600042600b600084815260200190815260200160002060000160149054906101000a900467ffffffffffffffff1667ffffffffffffffff1610610dbb57600b600083815260200190815260200160002060000160009054906101000a900473ffffffffffffffffffffffffffffffffffffffff169050610dc0565b600090505b919050565b6060610dd08261120c565b6000610dda611d92565b90506000815111610dfa5760405180602001604052806000815250610e25565b80610e0484611db2565b604051602001610e159291906130d9565b6040516020818303038152906040525b915050919050565b610e3733846116bd565b610e76576040517f08c379a0000000000000000000000000000000000000000000000000000000008152600401610e6d9061316f565b60405180910390fd5b600073ffffffffffffffffffffffffffffffffffffffff16610e9784610d40565b73ffffffffffffffffffffffffffffffffffffffff1614610eed576040517f08c379a0000000000000000000000000000000000000000000000000000000008152600401610ee4906131db565b60405180910390fd5b428167ffffffffffffffff1611610f39576040517f08c379a0000000000000000000000000000000000000000000000000000000008152600401610f3090613247565b60405180910390fd5b6000600b60008581526020019081526020016000209050828160000160006101000a81548173ffffffffffffffffffffffffffffffffffffffff021916908373ffffffffffffffffffffffffffffffffffffffff160217905550818160000160146101000a81548167ffffffffffffffff021916908367ffffffffffffffff1602179055508273ffffffffffffffffffffffffffffffffffffffff16847f4e06b4e7000e659094299b3533b47b6aa8ad048e95e872d23d1f4ee55af89cfe846040516110059190613276565b60405180910390a350505050565b6000600660008473ffffffffffffffffffffffffffffffffffffffff1673ffffffffffffffffffffffffffffffffffffffff16815260200190815260200160002060008373ffffffffffffffffffffffffffffffffffffffff1673ffffffffffffffffffffffffffffffffffffffff16815260200190815260200160002060009054906101000a900460ff16905092915050565b6110af611a88565b600073ffffffffffffffffffffffffffffffffffffffff168173ffffffffffffffffffffffffffffffffffffffff160361111e576040517f08c379a000000000000000000000000000000000000000000000000000000000815260040161111590613303565b60405180910390fd5b61112781611b06565b50565b60007f80ac58cd000000000000000000000000000000000000000000000000000000007bffffffffffffffffffffffffffffffffffffffffffffffffffffffff1916827bffffffffffffffffffffffffffffffffffffffffffffffffffffffff191614806111f557507f5b5e139f000000000000000000000000000000000000000000000000000000007bffffffffffffffffffffffffffffffffffffffffffffffffffffffff1916827bffffffffffffffffffffffffffffffffffffffffffffffffffffffff1916145b80611205575061120482611e80565b5b9050919050565b61121581611eea565b611254576040517f08c379a000000000000000000000000000000000000000000000000000000000815260040161124b90612feb565b60405180910390fd5b50565b600033905090565b816005600083815260200190815260200160002060006101000a81548173ffffffffffffffffffffffffffffffffffffffff021916908373ffffffffffffffffffffffffffffffffffffffff160217905550808273ffffffffffffffffffffffffffffffffffffffff166112d283610a58565b73ffffffffffffffffffffffffffffffffffffffff167f8c5be1e5ebec7d5bd14f71427d1e84f3dd0314c0f7b2291e5b200ac8c7c3b92560405160405180910390a45050565b600081600001549050919050565b6001816000016000828254019250508190555050565b600073ffffffffffffffffffffffffffffffffffffffff168273ffffffffffffffffffffffffffffffffffffffff16036113ab576040517f08c379a00000000000000000000000000000000000000000000000000000000081526004016113a29061336f565b60405180910390fd5b6113b481611eea565b156113f4576040517f08c379a00000000000000000000000000000000000000000000000000000000081526004016113eb906133db565b60405180910390fd5b611402600083836001611f2b565b61140b81611eea565b1561144b576040517f08c379a0000000000000000000000000000000000000000000000000000000008152600401611442906133db565b60405180910390fd5b6001600460008473ffffffffffffffffffffffffffffffffffffffff1673ffffffffffffffffffffffffffffffffffffffff16815260200190815260200160002060008282540192505081905550816003600083815260200190815260200160002060006101000a81548173ffffffffffffffffffffffffffffffffffffffff021916908373ffffffffffffffffffffffffffffffffffffffff160217905550808273ffffffffffffffffffffffffffffffffffffffff16600073ffffffffffffffffffffffffffffffffffffffff167fddf252ad1be2c89b69c2b068fc378daa952ba7f163c4a11628f55a4df523b3ef60405160405180910390a46115556000838360016120cb565b5050565b6000600860009054906101000a900473ffffffffffffffffffffffffffffffffffffffff1673ffffffffffffffffffffffffffffffffffffffff1663da7323b3600960009054906101000a900473ffffffffffffffffffffffffffffffffffffffff164630866000336040516024016115d29190612719565b6040516020818303038152906040527f8129fc1c000000000000000000000000000000000000000000000000000000007bffffffffffffffffffffffffffffffffffffffffffffffffffffffff19166020820180517bffffffffffffffffffffffffffffffffffffffffffffffffffffffff83818316178352505050506040518763ffffffff1660e01b815260040161167096959493929190613450565b6020604051808303816000875af115801561168f573d6000803e3d6000fd5b505050506040513d601f19601f820116820180604052508101906116b39190612ee0565b5060019050919050565b6000806116c983610a58565b90508073ffffffffffffffffffffffffffffffffffffffff168473ffffffffffffffffffffffffffffffffffffffff16148061170b575061170a8185611013565b5b8061174957508373ffffffffffffffffffffffffffffffffffffffff16611731846106c3565b73ffffffffffffffffffffffffffffffffffffffff16145b91505092915050565b8273ffffffffffffffffffffffffffffffffffffffff1661177282610a58565b73ffffffffffffffffffffffffffffffffffffffff16146117c8576040517f08c379a00000000000000000000000000000000000000000000000000000000081526004016117bf9061352a565b60405180910390fd5b600073ffffffffffffffffffffffffffffffffffffffff168273ffffffffffffffffffffffffffffffffffffffff1603611837576040517f08c379a000000000000000000000000000000000000000000000000000000000815260040161182e906135bc565b60405180910390fd5b6118448383836001611f2b565b8273ffffffffffffffffffffffffffffffffffffffff1661186482610a58565b73ffffffffffffffffffffffffffffffffffffffff16146118ba576040517f08c379a00000000000000000000000000000000000000000000000000000000081526004016118b19061352a565b60405180910390fd5b6005600082815260200190815260200160002060006101000a81549073ffffffffffffffffffffffffffffffffffffffff02191690556001600460008573ffffffffffffffffffffffffffffffffffffffff1673ffffffffffffffffffffffffffffffffffffffff168152602001908152602001600020600082825403925050819055506001600460008473ffffffffffffffffffffffffffffffffffffffff1673ffffffffffffffffffffffffffffffffffffffff16815260200190815260200160002060008282540192505081905550816003600083815260200190815260200160002060006101000a81548173ffffffffffffffffffffffffffffffffffffffff021916908373ffffffffffffffffffffffffffffffffffffffff160217905550808273ffffffffffffffffffffffffffffffffffffffff168473ffffffffffffffffffffffffffffffffffffffff167fddf252ad1be2c89b69c2b068fc378daa952ba7f163c4a11628f55a4df523b3ef60405160405180910390a4611a4683838360016120cb565b505050565b60006003600083815260200190815260200160002060009054906101000a900473ffffffffffffffffffffffffffffffffffffffff169050919050565b611a90611257565b73ffffffffffffffffffffffffffffffffffffffff16611aae610ba9565b73ffffffffffffffffffffffffffffffffffffffff1614611b04576040517f08c379a0000000000000000000000000000000000000000000000000000000008152600401611afb90613628565b60405180910390fd5b565b60008060009054906101000a900473ffffffffffffffffffffffffffffffffffffffff169050816000806101000a81548173ffffffffffffffffffffffffffffffffffffffff021916908373ffffffffffffffffffffffffffffffffffffffff1602179055508173ffffffffffffffffffffffffffffffffffffffff168173ffffffffffffffffffffffffffffffffffffffff167f8be0079c531659141344cd1fd0a4f28419497f9722a3daafe3b4186f6b6457e060405160405180910390a35050565b8173ffffffffffffffffffffffffffffffffffffffff168373ffffffffffffffffffffffffffffffffffffffff1603611c38576040517f08c379a0000000000000000000000000000000000000000000000000000000008152600401611c2f90613694565b60405180910390fd5b80600660008573ffffffffffffffffffffffffffffffffffffffff1673ffffffffffffffffffffffffffffffffffffffff16815260200190815260200160002060008473ffffffffffffffffffffffffffffffffffffffff1673ffffffffffffffffffffffffffffffffffffffff16815260200190815260200160002060006101000a81548160ff0219169083151502179055508173ffffffffffffffffffffffffffffffffffffffff168373ffffffffffffffffffffffffffffffffffffffff167f17307eab39ab6107e8899845ad3d59bd9653f200f220920489ca2b5937696c3183604051611d2991906125a8565b60405180910390a3505050565b611d41848484611752565b611d4d848484846120d1565b611d8c576040517f08c379a0000000000000000000000000000000000000000000000000000000008152600401611d8390613726565b60405180910390fd5b50505050565b60606040518060800160405280605981526020016138e760599139905090565b606060006001611dc184612258565b01905060008167ffffffffffffffff811115611de057611ddf61293a565b5b6040519080825280601f01601f191660200182016040528015611e125781602001600182028036833780820191505090505b509050600082602001820190505b600115611e75578080600190039150507f3031323334353637383961626364656600000000000000000000000000000000600a86061a8153600a8581611e6957611e68613746565b5b04945060008503611e20575b819350505050919050565b60007f01ffc9a7000000000000000000000000000000000000000000000000000000007bffffffffffffffffffffffffffffffffffffffffffffffffffffffff1916827bffffffffffffffffffffffffffffffffffffffffffffffffffffffff1916149050919050565b60008073ffffffffffffffffffffffffffffffffffffffff16611f0c83611a4b565b73ffffffffffffffffffffffffffffffffffffffff1614159050919050565b611f37848484846123ab565b8273ffffffffffffffffffffffffffffffffffffffff168473ffffffffffffffffffffffffffffffffffffffff1614158015611fd65750600073ffffffffffffffffffffffffffffffffffffffff16600b600084815260200190815260200160002060000160009054906101000a900473ffffffffffffffffffffffffffffffffffffffff1673ffffffffffffffffffffffffffffffffffffffff1614155b80156120165750600b600083815260200190815260200160002060000160149054906101000a900467ffffffffffffffff1667ffffffffffffffff164210155b156120c557600b6000838152602001908152602001600020600080820160006101000a81549073ffffffffffffffffffffffffffffffffffffffff02191690556000820160146101000a81549067ffffffffffffffff02191690555050600073ffffffffffffffffffffffffffffffffffffffff16827f4e06b4e7000e659094299b3533b47b6aa8ad048e95e872d23d1f4ee55af89cfe60006040516120bc91906137a6565b60405180910390a35b50505050565b50505050565b60006120f28473ffffffffffffffffffffffffffffffffffffffff166124d1565b1561224b578373ffffffffffffffffffffffffffffffffffffffff1663150b7a0261211b611257565b8786866040518563ffffffff1660e01b815260040161213d94939291906137c1565b6020604051808303816000875af192505050801561217957506040513d601f19601f820116820180604052508101906121769190613822565b60015b6121fb573d80600081146121a9576040519150601f19603f3d011682016040523d82523d6000602084013e6121ae565b606091505b5060008151036121f3576040517f08c379a00000000000000000000000000000000000000000000000000000000081526004016121ea90613726565b60405180910390fd5b805181602001fd5b63150b7a0260e01b7bffffffffffffffffffffffffffffffffffffffffffffffffffffffff1916817bffffffffffffffffffffffffffffffffffffffffffffffffffffffff191614915050612250565b600190505b949350505050565b600080600090507a184f03e93ff9f4daa797ed6e38ed64bf6a1f01000000000000000083106122b6577a184f03e93ff9f4daa797ed6e38ed64bf6a1f01000000000000000083816122ac576122ab613746565b5b0492506040810190505b6d04ee2d6d415b85acef810000000083106122f3576d04ee2d6d415b85acef810000000083816122e9576122e8613746565b5b0492506020810190505b662386f26fc10000831061232257662386f26fc10000838161231857612317613746565b5b0492506010810190505b6305f5e100831061234b576305f5e100838161234157612340613746565b5b0492506008810190505b612710831061237057612710838161236657612365613746565b5b0492506004810190505b60648310612393576064838161238957612388613746565b5b0492506002810190505b600a83106123a2576001810190505b80915050919050565b60018111156124cb57600073ffffffffffffffffffffffffffffffffffffffff168473ffffffffffffffffffffffffffffffffffffffff161461243f5780600460008673ffffffffffffffffffffffffffffffffffffffff1673ffffffffffffffffffffffffffffffffffffffff1681526020019081526020016000206000828254612437919061387e565b925050819055505b600073ffffffffffffffffffffffffffffffffffffffff168373ffffffffffffffffffffffffffffffffffffffff16146124ca5780600460008573ffffffffffffffffffffffffffffffffffffffff1673ffffffffffffffffffffffffffffffffffffffff16815260200190815260200160002060008282546124c291906138b2565b925050819055505b5b50505050565b6000808273ffffffffffffffffffffffffffffffffffffffff163b119050919050565b6000604051905090565b600080fd5b600080fd5b60007fffffffff0000000000000000000000000000000000000000000000000000000082169050919050565b61253d81612508565b811461254857600080fd5b50565b60008135905061255a81612534565b92915050565b600060208284031215612576576125756124fe565b5b60006125848482850161254b565b91505092915050565b60008115159050919050565b6125a28161258d565b82525050565b60006020820190506125bd6000830184612599565b92915050565b600081519050919050565b600082825260208201905092915050565b60005b838110156125fd5780820151818401526020810190506125e2565b60008484015250505050565b6000601f19601f8301169050919050565b6000612625826125c3565b61262f81856125ce565b935061263f8185602086016125df565b61264881612609565b840191505092915050565b6000602082019050818103600083015261266d818461261a565b905092915050565b6000819050919050565b61268881612675565b811461269357600080fd5b50565b6000813590506126a58161267f565b92915050565b6000602082840312156126c1576126c06124fe565b5b60006126cf84828501612696565b91505092915050565b600073ffffffffffffffffffffffffffffffffffffffff82169050919050565b6000612703826126d8565b9050919050565b612713816126f8565b82525050565b600060208201905061272e600083018461270a565b92915050565b61273d816126f8565b811461274857600080fd5b50565b60008135905061275a81612734565b92915050565b60008060408385031215612777576127766124fe565b5b60006127858582860161274b565b925050602061279685828601612696565b9150509250929050565b6127a981612675565b82525050565b60006020820190506127c460008301846127a0565b92915050565b6000806000606084860312156127e3576127e26124fe565b5b60006127f18682870161274b565b93505060206128028682870161274b565b925050604061281386828701612696565b9150509250925092565b600060208284031215612833576128326124fe565b5b60006128418482850161274b565b91505092915050565b6128538161258d565b811461285e57600080fd5b50565b6000813590506128708161284a565b92915050565b6000806040838503121561288d5761288c6124fe565b5b600061289b8582860161274b565b92505060206128ac85828601612861565b9150509250929050565b6000819050919050565b60006128db6128d66128d1846126d8565b6128b6565b6126d8565b9050919050565b60006128ed826128c0565b9050919050565b60006128ff826128e2565b9050919050565b61290f816128f4565b82525050565b600060208201905061292a6000830184612906565b92915050565b600080fd5b600080fd5b7f4e487b7100000000000000000000000000000000000000000000000000000000600052604160045260246000fd5b61297282612609565b810181811067ffffffffffffffff821117156129915761299061293a565b5b80604052505050565b60006129a46124f4565b90506129b08282612969565b919050565b600067ffffffffffffffff8211156129d0576129cf61293a565b5b6129d982612609565b9050602081019050919050565b82818337600083830152505050565b6000612a08612a03846129b5565b61299a565b905082815260208101848484011115612a2457612a23612935565b5b612a2f8482856129e6565b509392505050565b600082601f830112612a4c57612a4b612930565b5b8135612a5c8482602086016129f5565b91505092915050565b60008060008060808587031215612a7f57612a7e6124fe565b5b6000612a8d8782880161274b565b9450506020612a9e8782880161274b565b9350506040612aaf87828801612696565b925050606085013567ffffffffffffffff811115612ad057612acf612503565b5b612adc87828801612a37565b91505092959194509250565b600067ffffffffffffffff82169050919050565b612b0581612ae8565b8114612b1057600080fd5b50565b600081359050612b2281612afc565b92915050565b600080600060608486031215612b4157612b406124fe565b5b6000612b4f86828701612696565b9350506020612b608682870161274b565b9250506040612b7186828701612b13565b9150509250925092565b60008060408385031215612b9257612b916124fe565b5b6000612ba08582860161274b565b9250506020612bb18582860161274b565b9150509250929050565b7f4e487b7100000000000000000000000000000000000000000000000000000000600052602260045260246000fd5b60006002820490506001821680612c0257607f821691505b602082108103612c1557612c14612bbb565b5b50919050565b7f4552433732313a20617070726f76616c20746f2063757272656e74206f776e6560008201527f7200000000000000000000000000000000000000000000000000000000000000602082015250565b6000612c776021836125ce565b9150612c8282612c1b565b604082019050919050565b60006020820190508181036000830152612ca681612c6a565b9050919050565b7f4552433732313a20617070726f76652063616c6c6572206973206e6f7420746f60008201527f6b656e206f776e6572206f7220617070726f76656420666f7220616c6c000000602082015250565b6000612d09603d836125ce565b9150612d1482612cad565b604082019050919050565b60006020820190508181036000830152612d3881612cfc565b9050919050565b7f47616d65426173654e46543a20696e73756666696369656e742066756e647300600082015250565b6000612d75601f836125ce565b9150612d8082612d3f565b602082019050919050565b60006020820190508181036000830152612da481612d68565b9050919050565b7f47616d65426173654e46543a206661696c656420746f2063726561746520616360008201527f636f756e74000000000000000000000000000000000000000000000000000000602082015250565b6000612e076025836125ce565b9150612e1282612dab565b604082019050919050565b60006020820190508181036000830152612e3681612dfa565b9050919050565b6000819050919050565b6000612e62612e5d612e5884612e3d565b6128b6565b612675565b9050919050565b612e7281612e47565b82525050565b600060a082019050612e8d600083018861270a565b612e9a60208301876127a0565b612ea7604083018661270a565b612eb460608301856127a0565b612ec16080830184612e69565b9695505050505050565b600081519050612eda81612734565b92915050565b600060208284031215612ef657612ef56124fe565b5b6000612f0484828501612ecb565b91505092915050565b7f4552433732313a2063616c6c6572206973206e6f7420746f6b656e206f776e6560008201527f72206f7220617070726f76656400000000000000000000000000000000000000602082015250565b6000612f69602d836125ce565b9150612f7482612f0d565b604082019050919050565b60006020820190508181036000830152612f9881612f5c565b9050919050565b7f4552433732313a20696e76616c696420746f6b656e2049440000000000000000600082015250565b6000612fd56018836125ce565b9150612fe082612f9f565b602082019050919050565b6000602082019050818103600083015261300481612fc8565b9050919050565b7f4552433732313a2061646472657373207a65726f206973206e6f74206120766160008201527f6c6964206f776e65720000000000000000000000000000000000000000000000602082015250565b60006130676029836125ce565b91506130728261300b565b604082019050919050565b600060208201905081810360008301526130968161305a565b9050919050565b600081905092915050565b60006130b3826125c3565b6130bd818561309d565b93506130cd8185602086016125df565b80840191505092915050565b60006130e582856130a8565b91506130f182846130a8565b91508190509392505050565b7f4552433732313a207472616e736665722063616c6c6572206973206e6f74206f60008201527f776e6572206e6f7220617070726f766564000000000000000000000000000000602082015250565b60006131596031836125ce565b9150613164826130fd565b604082019050919050565b600060208201905081810360008301526131888161314c565b9050919050565b7f5573657220616c72656164792061737369676e65640000000000000000000000600082015250565b60006131c56015836125ce565b91506131d08261318f565b602082019050919050565b600060208201905081810360008301526131f4816131b8565b9050919050565b7f657870697265732073686f756c6420626520696e206675747572650000000000600082015250565b6000613231601b836125ce565b915061323c826131fb565b602082019050919050565b6000602082019050818103600083015261326081613224565b9050919050565b61327081612ae8565b82525050565b600060208201905061328b6000830184613267565b92915050565b7f4f776e61626c653a206e6577206f776e657220697320746865207a65726f206160008201527f6464726573730000000000000000000000000000000000000000000000000000602082015250565b60006132ed6026836125ce565b91506132f882613291565b604082019050919050565b6000602082019050818103600083015261331c816132e0565b9050919050565b7f4552433732313a206d696e7420746f20746865207a65726f2061646472657373600082015250565b60006133596020836125ce565b915061336482613323565b602082019050919050565b600060208201905081810360008301526133888161334c565b9050919050565b7f4552433732313a20746f6b656e20616c7265616479206d696e74656400000000600082015250565b60006133c5601c836125ce565b91506133d08261338f565b602082019050919050565b600060208201905081810360008301526133f4816133b8565b9050919050565b600081519050919050565b600082825260208201905092915050565b6000613422826133fb565b61342c8185613406565b935061343c8185602086016125df565b61344581612609565b840191505092915050565b600060c082019050613465600083018961270a565b61347260208301886127a0565b61347f604083018761270a565b61348c60608301866127a0565b6134996080830185612e69565b81810360a08301526134ab8184613417565b9050979650505050505050565b7f4552433732313a207472616e736665722066726f6d20696e636f72726563742060008201527f6f776e6572000000000000000000000000000000000000000000000000000000602082015250565b60006135146025836125ce565b915061351f826134b8565b604082019050919050565b6000602082019050818103600083015261354381613507565b9050919050565b7f4552433732313a207472616e7366657220746f20746865207a65726f2061646460008201527f7265737300000000000000000000000000000000000000000000000000000000602082015250565b60006135a66024836125ce565b91506135b18261354a565b604082019050919050565b600060208201905081810360008301526135d581613599565b9050919050565b7f4f776e61626c653a2063616c6c6572206973206e6f7420746865206f776e6572600082015250565b60006136126020836125ce565b915061361d826135dc565b602082019050919050565b6000602082019050818103600083015261364181613605565b9050919050565b7f4552433732313a20617070726f766520746f2063616c6c657200000000000000600082015250565b600061367e6019836125ce565b915061368982613648565b602082019050919050565b600060208201905081810360008301526136ad81613671565b9050919050565b7f4552433732313a207472616e7366657220746f206e6f6e20455243373231526560008201527f63656976657220696d706c656d656e7465720000000000000000000000000000602082015250565b60006137106032836125ce565b915061371b826136b4565b604082019050919050565b6000602082019050818103600083015261373f81613703565b9050919050565b7f4e487b7100000000000000000000000000000000000000000000000000000000600052601260045260246000fd5b600061379061378b61378684612e3d565b6128b6565b612ae8565b9050919050565b6137a081613775565b82525050565b60006020820190506137bb6000830184613797565b92915050565b60006080820190506137d6600083018761270a565b6137e3602083018661270a565b6137f060408301856127a0565b81810360608301526138028184613417565b905095945050505050565b60008151905061381c81612534565b92915050565b600060208284031215613838576138376124fe565b5b60006138468482850161380d565b91505092915050565b7f4e487b7100000000000000000000000000000000000000000000000000000000600052601160045260246000fd5b600061388982612675565b915061389483612675565b92508282039050818111156138ac576138ab61384f565b5b92915050565b60006138bd82612675565b91506138c883612675565b92508282019050808211156138e0576138df61384f565b5b9291505056fe68747470733a2f2f6261666b72656966643379707673323263763266707679646374623465706c3561773333366a71686d6870626f336e706f6d35377237326f356a342e697066732e6e667473746f726167652e6c696e6b2fa2646970667358221220f809a0fd389381f2460ef3af24df0d9220e98ce0cf6d0e9ac698b7ba08445ee464736f6c63430008120033",
  "devdoc": {
    "events": {
      "Approval(address,address,uint256)": {
        "details": "Emitted when `owner` enables `approved` to manage the `tokenId` token."
      },
      "ApprovalForAll(address,address,bool)": {
        "details": "Emitted when `owner` enables or disables (`approved`) `operator` to manage all of its assets."
      },
      "BatchMetadataUpdate(uint256,uint256)": {
        "details": "This event emits when the metadata of a range of tokens is changed. So that the third-party platforms such as NFT market could timely update the images and related attributes of the NFTs."
      },
      "MetadataUpdate(uint256)": {
        "details": "This event emits when the metadata of a token is changed. Third-party platforms such as NFT marketplaces can listen to the event and auto-update the tokens in their apps."
      },
      "Transfer(address,address,uint256)": {
        "details": "Emitted when `tokenId` token is transferred from `from` to `to`."
      }
    },
    "kind": "dev",
    "methods": {
      "approve(address,uint256)": {
        "details": "See {IERC721-approve}."
      },
      "balanceOf(address)": {
        "details": "See {IERC721-balanceOf}."
      },
      "getApproved(uint256)": {
        "details": "See {IERC721-getApproved}."
      },
      "isApprovedForAll(address,address)": {
        "details": "See {IERC721-isApprovedForAll}."
      },
      "name()": {
        "details": "See {IERC721Metadata-name}."
      },
      "owner()": {
        "details": "Returns the address of the current owner."
      },
      "ownerOf(uint256)": {
        "details": "See {IERC721-ownerOf}."
      },
      "renounceOwnership()": {
        "details": "Leaves the contract without owner. It will not be possible to call `onlyOwner` functions anymore. Can only be called by the current owner. NOTE: Renouncing ownership will leave the contract without an owner, thereby removing any functionality that is only available to the owner."
      },
      "safeTransferFrom(address,address,uint256)": {
        "details": "See {IERC721-safeTransferFrom}."
      },
      "safeTransferFrom(address,address,uint256,bytes)": {
        "details": "See {IERC721-safeTransferFrom}."
      },
      "setApprovalForAll(address,bool)": {
        "details": "See {IERC721-setApprovalForAll}."
      },
      "setUser(uint256,address,uint64)": {
        "details": "The zero address indicates there is no user  Throws if `tokenId` is not valid NFT",
        "params": {
          "expires": "UNIX timestamp, The new user could use the NFT before expires",
          "user": "The new user of the NFT"
        }
      },
      "symbol()": {
        "details": "See {IERC721Metadata-symbol}."
      },
      "tokenURI(uint256)": {
        "details": "See {IERC721Metadata-tokenURI}."
      },
      "transferFrom(address,address,uint256)": {
        "details": "See {IERC721-transferFrom}."
      },
      "transferOwnership(address)": {
        "details": "Transfers ownership of the contract to a new account (`newOwner`). Can only be called by the current owner."
      },
      "userExpires(uint256)": {
        "details": "The zero value indicates that there is no user",
        "params": {
          "tokenId": "The NFT to get the user expires for"
        },
        "returns": {
          "_0": "The user expires for this NFT"
        }
      },
      "userOf(uint256)": {
        "details": "The zero address indicates that there is no user or the user is expired",
        "params": {
          "tokenId": "The NFT to get the user address for"
        },
        "returns": {
          "_0": "The user address for this NFT"
        }
      }
    },
    "version": 1
  },
  "userdoc": {
    "events": {
      "UpdateUser(uint256,address,uint64)": {
        "notice": "Emitted when the `user` of an NFT or the `expires` of the `user` is changed The zero address for user indicates that there is no user address"
      }
    },
    "kind": "user",
    "methods": {
      "setUser(uint256,address,uint64)": {
        "notice": "set the user and expires of a NFT"
      },
      "userExpires(uint256)": {
        "notice": "Get the user expires of an NFT"
      },
      "userOf(uint256)": {
        "notice": "Get the user address of an NFT"
      }
    },
    "version": 1
  },
  "storageLayout": {
    "storage": [
      {
        "astId": 7,
        "contract": "contracts/ERC4907/GameBaseNFT.sol:GameBaseNFT",
        "label": "_owner",
        "offset": 0,
        "slot": "0",
        "type": "t_address"
      },
      {
        "astId": 138,
        "contract": "contracts/ERC4907/GameBaseNFT.sol:GameBaseNFT",
        "label": "_name",
        "offset": 0,
        "slot": "1",
        "type": "t_string_storage"
      },
      {
        "astId": 140,
        "contract": "contracts/ERC4907/GameBaseNFT.sol:GameBaseNFT",
        "label": "_symbol",
        "offset": 0,
        "slot": "2",
        "type": "t_string_storage"
      },
      {
        "astId": 144,
        "contract": "contracts/ERC4907/GameBaseNFT.sol:GameBaseNFT",
        "label": "_owners",
        "offset": 0,
        "slot": "3",
        "type": "t_mapping(t_uint256,t_address)"
      },
      {
        "astId": 148,
        "contract": "contracts/ERC4907/GameBaseNFT.sol:GameBaseNFT",
        "label": "_balances",
        "offset": 0,
        "slot": "4",
        "type": "t_mapping(t_address,t_uint256)"
      },
      {
        "astId": 152,
        "contract": "contracts/ERC4907/GameBaseNFT.sol:GameBaseNFT",
        "label": "_tokenApprovals",
        "offset": 0,
        "slot": "5",
        "type": "t_mapping(t_uint256,t_address)"
      },
      {
        "astId": 158,
        "contract": "contracts/ERC4907/GameBaseNFT.sol:GameBaseNFT",
        "label": "_operatorApprovals",
        "offset": 0,
        "slot": "6",
        "type": "t_mapping(t_address,t_mapping(t_address,t_bool))"
      },
      {
        "astId": 2789,
        "contract": "contracts/ERC4907/GameBaseNFT.sol:GameBaseNFT",
        "label": "_tokenIds",
        "offset": 0,
        "slot": "7",
        "type": "t_struct(Counter)1576_storage"
      },
      {
        "astId": 2795,
        "contract": "contracts/ERC4907/GameBaseNFT.sol:GameBaseNFT",
        "label": "ERC6551Registry",
        "offset": 0,
        "slot": "8",
        "type": "t_contract(IERC6551Registry)2774"
      },
      {
        "astId": 2797,
        "contract": "contracts/ERC4907/GameBaseNFT.sol:GameBaseNFT",
        "label": "ERC6551AccountImplementation",
        "offset": 0,
        "slot": "9",
        "type": "t_address"
      },
      {
        "astId": 2801,
        "contract": "contracts/ERC4907/GameBaseNFT.sol:GameBaseNFT",
        "label": "_tokenImageURIs",
        "offset": 0,
        "slot": "10",
        "type": "t_mapping(t_uint256,t_string_storage)"
      },
      {
        "astId": 2937,
        "contract": "contracts/ERC4907/GameBaseNFT.sol:GameBaseNFT",
        "label": "_users",
        "offset": 0,
        "slot": "11",
        "type": "t_mapping(t_uint256,t_struct(UserInfo)2932_storage)"
      }
    ],
    "types": {
      "t_address": {
        "encoding": "inplace",
        "label": "address",
        "numberOfBytes": "20"
      },
      "t_bool": {
        "encoding": "inplace",
        "label": "bool",
        "numberOfBytes": "1"
      },
      "t_contract(IERC6551Registry)2774": {
        "encoding": "inplace",
        "label": "contract IERC6551Registry",
        "numberOfBytes": "20"
      },
      "t_mapping(t_address,t_bool)": {
        "encoding": "mapping",
        "key": "t_address",
        "label": "mapping(address => bool)",
        "numberOfBytes": "32",
        "value": "t_bool"
      },
      "t_mapping(t_address,t_mapping(t_address,t_bool))": {
        "encoding": "mapping",
        "key": "t_address",
        "label": "mapping(address => mapping(address => bool))",
        "numberOfBytes": "32",
        "value": "t_mapping(t_address,t_bool)"
      },
      "t_mapping(t_address,t_uint256)": {
        "encoding": "mapping",
        "key": "t_address",
        "label": "mapping(address => uint256)",
        "numberOfBytes": "32",
        "value": "t_uint256"
      },
      "t_mapping(t_uint256,t_address)": {
        "encoding": "mapping",
        "key": "t_uint256",
        "label": "mapping(uint256 => address)",
        "numberOfBytes": "32",
        "value": "t_address"
      },
      "t_mapping(t_uint256,t_string_storage)": {
        "encoding": "mapping",
        "key": "t_uint256",
        "label": "mapping(uint256 => string)",
        "numberOfBytes": "32",
        "value": "t_string_storage"
      },
      "t_mapping(t_uint256,t_struct(UserInfo)2932_storage)": {
        "encoding": "mapping",
        "key": "t_uint256",
        "label": "mapping(uint256 => struct GameBaseNFT.UserInfo)",
        "numberOfBytes": "32",
        "value": "t_struct(UserInfo)2932_storage"
      },
      "t_string_storage": {
        "encoding": "bytes",
        "label": "string",
        "numberOfBytes": "32"
      },
      "t_struct(Counter)1576_storage": {
        "encoding": "inplace",
        "label": "struct Counters.Counter",
        "members": [
          {
            "astId": 1575,
            "contract": "contracts/ERC4907/GameBaseNFT.sol:GameBaseNFT",
            "label": "_value",
            "offset": 0,
            "slot": "0",
            "type": "t_uint256"
          }
        ],
        "numberOfBytes": "32"
      },
      "t_struct(UserInfo)2932_storage": {
        "encoding": "inplace",
        "label": "struct GameBaseNFT.UserInfo",
        "members": [
          {
            "astId": 2929,
            "contract": "contracts/ERC4907/GameBaseNFT.sol:GameBaseNFT",
            "label": "user",
            "offset": 0,
            "slot": "0",
            "type": "t_address"
          },
          {
            "astId": 2931,
            "contract": "contracts/ERC4907/GameBaseNFT.sol:GameBaseNFT",
            "label": "expires",
            "offset": 20,
            "slot": "0",
            "type": "t_uint64"
          }
        ],
        "numberOfBytes": "32"
      },
      "t_uint256": {
        "encoding": "inplace",
        "label": "uint256",
        "numberOfBytes": "32"
      },
      "t_uint64": {
        "encoding": "inplace",
        "label": "uint64",
        "numberOfBytes": "8"
      }
    }
  }
}