{
  "address": "0xB04ad7dF4ad864561C59504Df4E1866Ae1d5E063",
  "abi": [
    {
      "inputs": [
        {
          "internalType": "address",
          "name": "_ERC6551Registry",
          "type": "address"
        },
        {
          "internalType": "address",
          "name": "_ERC6551AccountImplementation",
          "type": "address"
        },
        {
          "internalType": "string",
          "name": "_baseURI",
          "type": "string"
        }
      ],
      "stateMutability": "nonpayable",
      "type": "constructor"
    },
    {
      "anonymous": false,
      "inputs": [
        {
          "indexed": true,
          "internalType": "address",
          "name": "owner",
          "type": "address"
        },
        {
          "indexed": true,
          "internalType": "address",
          "name": "approved",
          "type": "address"
        },
        {
          "indexed": true,
          "internalType": "uint256",
          "name": "tokenId",
          "type": "uint256"
        }
      ],
      "name": "Approval",
      "type": "event"
    },
    {
      "anonymous": false,
      "inputs": [
        {
          "indexed": true,
          "internalType": "address",
          "name": "owner",
          "type": "address"
        },
        {
          "indexed": true,
          "internalType": "address",
          "name": "operator",
          "type": "address"
        },
        {
          "indexed": false,
          "internalType": "bool",
          "name": "approved",
          "type": "bool"
        }
      ],
      "name": "ApprovalForAll",
      "type": "event"
    },
    {
      "anonymous": false,
      "inputs": [
        {
          "indexed": false,
          "internalType": "uint256",
          "name": "_fromTokenId",
          "type": "uint256"
        },
        {
          "indexed": false,
          "internalType": "uint256",
          "name": "_toTokenId",
          "type": "uint256"
        }
      ],
      "name": "BatchMetadataUpdate",
      "type": "event"
    },
    {
      "anonymous": false,
      "inputs": [
        {
          "indexed": false,
          "internalType": "uint256",
          "name": "_tokenId",
          "type": "uint256"
        }
      ],
      "name": "MetadataUpdate",
      "type": "event"
    },
    {
      "anonymous": false,
      "inputs": [
        {
          "indexed": true,
          "internalType": "address",
          "name": "previousOwner",
          "type": "address"
        },
        {
          "indexed": true,
          "internalType": "address",
          "name": "newOwner",
          "type": "address"
        }
      ],
      "name": "OwnershipTransferred",
      "type": "event"
    },
    {
      "anonymous": false,
      "inputs": [
        {
          "indexed": true,
          "internalType": "address",
          "name": "from",
          "type": "address"
        },
        {
          "indexed": true,
          "internalType": "address",
          "name": "to",
          "type": "address"
        },
        {
          "indexed": true,
          "internalType": "uint256",
          "name": "tokenId",
          "type": "uint256"
        }
      ],
      "name": "Transfer",
      "type": "event"
    },
    {
      "anonymous": false,
      "inputs": [
        {
          "indexed": true,
          "internalType": "uint256",
          "name": "tokenId",
          "type": "uint256"
        },
        {
          "indexed": true,
          "internalType": "address",
          "name": "user",
          "type": "address"
        },
        {
          "indexed": false,
          "internalType": "uint64",
          "name": "expires",
          "type": "uint64"
        }
      ],
      "name": "UpdateUser",
      "type": "event"
    },
    {
      "inputs": [],
      "name": "ERC6551AccountImplementation",
      "outputs": [
        {
          "internalType": "address",
          "name": "",
          "type": "address"
        }
      ],
      "stateMutability": "view",
      "type": "function"
    },
    {
      "inputs": [],
      "name": "ERC6551Registry",
      "outputs": [
        {
          "internalType": "contract IERC6551Registry",
          "name": "",
          "type": "address"
        }
      ],
      "stateMutability": "view",
      "type": "function"
    },
    {
      "inputs": [],
      "name": "PRICE_TOKEN",
      "outputs": [
        {
          "internalType": "uint256",
          "name": "",
          "type": "uint256"
        }
      ],
      "stateMutability": "view",
      "type": "function"
    },
    {
      "inputs": [
        {
          "internalType": "address",
          "name": "to",
          "type": "address"
        },
        {
          "internalType": "uint256",
          "name": "tokenId",
          "type": "uint256"
        }
      ],
      "name": "approve",
      "outputs": [],
      "stateMutability": "nonpayable",
      "type": "function"
    },
    {
      "inputs": [
        {
          "internalType": "address",
          "name": "owner",
          "type": "address"
        }
      ],
      "name": "balanceOf",
      "outputs": [
        {
          "internalType": "uint256",
          "name": "",
          "type": "uint256"
        }
      ],
      "stateMutability": "view",
      "type": "function"
    },
    {
      "inputs": [
        {
          "internalType": "uint256",
          "name": "tokenId",
          "type": "uint256"
        }
      ],
      "name": "getApproved",
      "outputs": [
        {
          "internalType": "address",
          "name": "",
          "type": "address"
        }
      ],
      "stateMutability": "view",
      "type": "function"
    },
    {
      "inputs": [
        {
          "internalType": "address",
          "name": "owner",
          "type": "address"
        },
        {
          "internalType": "address",
          "name": "operator",
          "type": "address"
        }
      ],
      "name": "isApprovedForAll",
      "outputs": [
        {
          "internalType": "bool",
          "name": "",
          "type": "bool"
        }
      ],
      "stateMutability": "view",
      "type": "function"
    },
    {
      "inputs": [],
      "name": "mint",
      "outputs": [],
      "stateMutability": "payable",
      "type": "function"
    },
    {
      "inputs": [],
      "name": "name",
      "outputs": [
        {
          "internalType": "string",
          "name": "",
          "type": "string"
        }
      ],
      "stateMutability": "view",
      "type": "function"
    },
    {
      "inputs": [],
      "name": "owner",
      "outputs": [
        {
          "internalType": "address",
          "name": "",
          "type": "address"
        }
      ],
      "stateMutability": "view",
      "type": "function"
    },
    {
      "inputs": [
        {
          "internalType": "uint256",
          "name": "tokenId",
          "type": "uint256"
        }
      ],
      "name": "ownerOf",
      "outputs": [
        {
          "internalType": "address",
          "name": "",
          "type": "address"
        }
      ],
      "stateMutability": "view",
      "type": "function"
    },
    {
      "inputs": [],
      "name": "renounceOwnership",
      "outputs": [],
      "stateMutability": "nonpayable",
      "type": "function"
    },
    {
      "inputs": [
        {
          "internalType": "address",
          "name": "from",
          "type": "address"
        },
        {
          "internalType": "address",
          "name": "to",
          "type": "address"
        },
        {
          "internalType": "uint256",
          "name": "tokenId",
          "type": "uint256"
        }
      ],
      "name": "safeTransferFrom",
      "outputs": [],
      "stateMutability": "nonpayable",
      "type": "function"
    },
    {
      "inputs": [
        {
          "internalType": "address",
          "name": "from",
          "type": "address"
        },
        {
          "internalType": "address",
          "name": "to",
          "type": "address"
        },
        {
          "internalType": "uint256",
          "name": "tokenId",
          "type": "uint256"
        },
        {
          "internalType": "bytes",
          "name": "data",
          "type": "bytes"
        }
      ],
      "name": "safeTransferFrom",
      "outputs": [],
      "stateMutability": "nonpayable",
      "type": "function"
    },
    {
      "inputs": [
        {
          "internalType": "address",
          "name": "operator",
          "type": "address"
        },
        {
          "internalType": "bool",
          "name": "approved",
          "type": "bool"
        }
      ],
      "name": "setApprovalForAll",
      "outputs": [],
      "stateMutability": "nonpayable",
      "type": "function"
    },
    {
      "inputs": [
        {
          "internalType": "string",
          "name": "_baseURI",
          "type": "string"
        }
      ],
      "name": "setBaseURI",
      "outputs": [],
      "stateMutability": "nonpayable",
      "type": "function"
    },
    {
      "inputs": [
        {
          "internalType": "uint256",
          "name": "tokenId",
          "type": "uint256"
        },
        {
          "internalType": "address",
          "name": "user",
          "type": "address"
        },
        {
          "internalType": "uint64",
          "name": "expires",
          "type": "uint64"
        }
      ],
      "name": "setUser",
      "outputs": [],
      "stateMutability": "nonpayable",
      "type": "function"
    },
    {
      "inputs": [
        {
          "internalType": "uint256",
          "name": "_tokenId",
          "type": "uint256"
        }
      ],
      "name": "showTBA",
      "outputs": [
        {
          "internalType": "address",
          "name": "",
          "type": "address"
        }
      ],
      "stateMutability": "view",
      "type": "function"
    },
    {
      "inputs": [
        {
          "internalType": "bytes4",
          "name": "interfaceId",
          "type": "bytes4"
        }
      ],
      "name": "supportsInterface",
      "outputs": [
        {
          "internalType": "bool",
          "name": "",
          "type": "bool"
        }
      ],
      "stateMutability": "view",
      "type": "function"
    },
    {
      "inputs": [],
      "name": "symbol",
      "outputs": [
        {
          "internalType": "string",
          "name": "",
          "type": "string"
        }
      ],
      "stateMutability": "view",
      "type": "function"
    },
    {
      "inputs": [
        {
          "internalType": "uint256",
          "name": "tokenId",
          "type": "uint256"
        }
      ],
      "name": "tokenURI",
      "outputs": [
        {
          "internalType": "string",
          "name": "",
          "type": "string"
        }
      ],
      "stateMutability": "view",
      "type": "function"
    },
    {
      "inputs": [
        {
          "internalType": "address",
          "name": "from",
          "type": "address"
        },
        {
          "internalType": "address",
          "name": "to",
          "type": "address"
        },
        {
          "internalType": "uint256",
          "name": "tokenId",
          "type": "uint256"
        }
      ],
      "name": "transferFrom",
      "outputs": [],
      "stateMutability": "nonpayable",
      "type": "function"
    },
    {
      "inputs": [
        {
          "internalType": "address",
          "name": "newOwner",
          "type": "address"
        }
      ],
      "name": "transferOwnership",
      "outputs": [],
      "stateMutability": "nonpayable",
      "type": "function"
    },
    {
      "inputs": [
        {
          "internalType": "uint256",
          "name": "tokenId",
          "type": "uint256"
        }
      ],
      "name": "userExpires",
      "outputs": [
        {
          "internalType": "uint256",
          "name": "",
          "type": "uint256"
        }
      ],
      "stateMutability": "view",
      "type": "function"
    },
    {
      "inputs": [
        {
          "internalType": "uint256",
          "name": "tokenId",
          "type": "uint256"
        }
      ],
      "name": "userOf",
      "outputs": [
        {
          "internalType": "address",
          "name": "",
          "type": "address"
        }
      ],
      "stateMutability": "view",
      "type": "function"
    }
  ],
  "transactionHash": "0x36c5bb8453f4c789170c0ef769dda25d3a22ab494a69613e99d0d5148c8bf72d",
  "args": [
    "0xE96b2504cfeFf5b5d17B7B2E1FcF9DD597158d4A",
    "0xfC08e4E61c18f42220c82B02F7458EF075c341Cb",
    "https://ipfs.io/ipfs/bafkreifd3ypvs22cv2fpvydctb4epl5aw336jqhmhpbo3npom57r72o5j4"
  ],
  "numDeployments": 1,
  "solcInputHash": "ed5ee7c7e229939b2a25181598865d75",
  "bytecode": "0x60806040523480156200001157600080fd5b50604051620045523803806200455283398181016040528101906200003791906200044a565b6040518060400160405280600881526020017f52656e74343930370000000000000000000000000000000000000000000000008152506040518060400160405280600581526020017f5234393037000000000000000000000000000000000000000000000000000000815250620000c3620000b76200018660201b60201c565b6200018e60201b60201c565b8160019081620000d4919062000710565b508060029081620000e6919062000710565b50505082600960006101000a81548173ffffffffffffffffffffffffffffffffffffffff021916908373ffffffffffffffffffffffffffffffffffffffff16021790555081600a60006101000a81548173ffffffffffffffffffffffffffffffffffffffff021916908373ffffffffffffffffffffffffffffffffffffffff16021790555080600890816200017c919062000710565b50505050620007f7565b600033905090565b60008060009054906101000a900473ffffffffffffffffffffffffffffffffffffffff169050816000806101000a81548173ffffffffffffffffffffffffffffffffffffffff021916908373ffffffffffffffffffffffffffffffffffffffff1602179055508173ffffffffffffffffffffffffffffffffffffffff168173ffffffffffffffffffffffffffffffffffffffff167f8be0079c531659141344cd1fd0a4f28419497f9722a3daafe3b4186f6b6457e060405160405180910390a35050565b6000604051905090565b600080fd5b600080fd5b600073ffffffffffffffffffffffffffffffffffffffff82169050919050565b6000620002938262000266565b9050919050565b620002a58162000286565b8114620002b157600080fd5b50565b600081519050620002c5816200029a565b92915050565b600080fd5b600080fd5b6000601f19601f8301169050919050565b7f4e487b7100000000000000000000000000000000000000000000000000000000600052604160045260246000fd5b6200032082620002d5565b810181811067ffffffffffffffff82111715620003425762000341620002e6565b5b80604052505050565b60006200035762000252565b905062000365828262000315565b919050565b600067ffffffffffffffff821115620003885762000387620002e6565b5b6200039382620002d5565b9050602081019050919050565b60005b83811015620003c0578082015181840152602081019050620003a3565b60008484015250505050565b6000620003e3620003dd846200036a565b6200034b565b905082815260208101848484011115620004025762000401620002d0565b5b6200040f848285620003a0565b509392505050565b600082601f8301126200042f576200042e620002cb565b5b815162000441848260208601620003cc565b91505092915050565b6000806000606084860312156200046657620004656200025c565b5b60006200047686828701620002b4565b93505060206200048986828701620002b4565b925050604084015167ffffffffffffffff811115620004ad57620004ac62000261565b5b620004bb8682870162000417565b9150509250925092565b600081519050919050565b7f4e487b7100000000000000000000000000000000000000000000000000000000600052602260045260246000fd5b600060028204905060018216806200051857607f821691505b6020821081036200052e576200052d620004d0565b5b50919050565b60008190508160005260206000209050919050565b60006020601f8301049050919050565b600082821b905092915050565b600060088302620005987fffffffffffffffffffffffffffffffffffffffffffffffffffffffffffffffff8262000559565b620005a4868362000559565b95508019841693508086168417925050509392505050565b6000819050919050565b6000819050919050565b6000620005f1620005eb620005e584620005bc565b620005c6565b620005bc565b9050919050565b6000819050919050565b6200060d83620005d0565b620006256200061c82620005f8565b84845462000566565b825550505050565b600090565b6200063c6200062d565b6200064981848462000602565b505050565b5b8181101562000671576200066560008262000632565b6001810190506200064f565b5050565b601f821115620006c0576200068a8162000534565b620006958462000549565b81016020851015620006a5578190505b620006bd620006b48562000549565b8301826200064e565b50505b505050565b600082821c905092915050565b6000620006e560001984600802620006c5565b1980831691505092915050565b6000620007008383620006d2565b9150826002028217905092915050565b6200071b82620004c5565b67ffffffffffffffff811115620007375762000736620002e6565b5b620007438254620004ff565b6200075082828562000675565b600060209050601f83116001811462000788576000841562000773578287015190505b6200077f8582620006f2565b865550620007ef565b601f198416620007988662000534565b60005b82811015620007c2578489015182556001820191506020850194506020810190506200079b565b86831015620007e25784890151620007de601f891682620006d2565b8355505b6001600288020188555050505b505050505050565b613d4b80620008076000396000f3fe6080604052600436106101665760003560e01c806370a08231116100d1578063adbcef111161008a578063c87b56dd11610064578063c87b56dd1461052f578063e030565e1461056c578063e985e9c514610595578063f2fde38b146105d257610166565b8063adbcef111461049e578063b88d4fde146104c9578063c2f1f14a146104f257610166565b806370a082311461038e578063715018a6146103cb5780638da5cb5b146103e25780638fc88c481461040d57806395d89b411461044a578063a22cb4651461047557610166565b80632205108f116101235780632205108f1461028057806323b872dd146102ab5780632cecaac7146102d457806342842e0e146102ff57806355f804b3146103285780636352211e1461035157610166565b806301ffc9a71461016b57806306fdde03146101a8578063081812fc146101d3578063095ea7b3146102105780631249c58b1461023957806321f41afd14610243575b600080fd5b34801561017757600080fd5b50610192600480360381019061018d9190612631565b6105fb565b60405161019f9190612679565b60405180910390f35b3480156101b457600080fd5b506101bd610675565b6040516101ca9190612724565b60405180910390f35b3480156101df57600080fd5b506101fa60048036038101906101f5919061277c565b610707565b60405161020791906127ea565b60405180910390f35b34801561021c57600080fd5b5061023760048036038101906102329190612831565b61074d565b005b610241610864565b005b34801561024f57600080fd5b5061026a6004803603810190610265919061277c565b61091b565b60405161027791906127ea565b60405180910390f35b34801561028c57600080fd5b506102956109eb565b6040516102a29190612880565b60405180910390f35b3480156102b757600080fd5b506102d260048036038101906102cd919061289b565b6109f6565b005b3480156102e057600080fd5b506102e9610a56565b6040516102f691906127ea565b60405180910390f35b34801561030b57600080fd5b506103266004803603810190610321919061289b565b610a7c565b005b34801561033457600080fd5b5061034f600480360381019061034a9190612a23565b610a9c565b005b34801561035d57600080fd5b506103786004803603810190610373919061277c565b610ab7565b60405161038591906127ea565b60405180910390f35b34801561039a57600080fd5b506103b560048036038101906103b09190612a6c565b610b3d565b6040516103c29190612880565b60405180910390f35b3480156103d757600080fd5b506103e0610bf4565b005b3480156103ee57600080fd5b506103f7610c08565b60405161040491906127ea565b60405180910390f35b34801561041957600080fd5b50610434600480360381019061042f919061277c565b610c31565b6040516104419190612880565b60405180910390f35b34801561045657600080fd5b5061045f610c6f565b60405161046c9190612724565b60405180910390f35b34801561048157600080fd5b5061049c60048036038101906104979190612ac5565b610d01565b005b3480156104aa57600080fd5b506104b3610d17565b6040516104c09190612b64565b60405180910390f35b3480156104d557600080fd5b506104f060048036038101906104eb9190612c20565b610d3d565b005b3480156104fe57600080fd5b506105196004803603810190610514919061277c565b610d9f565b60405161052691906127ea565b60405180910390f35b34801561053b57600080fd5b506105566004803603810190610551919061277c565b610e24565b6040516105639190612724565b60405180910390f35b34801561057857600080fd5b50610593600480360381019061058e9190612ce3565b610e8c565b005b3480156105a157600080fd5b506105bc60048036038101906105b79190612d36565b611072565b6040516105c99190612679565b60405180910390f35b3480156105de57600080fd5b506105f960048036038101906105f49190612a6c565b611106565b005b60007fad092b5c000000000000000000000000000000000000000000000000000000007bffffffffffffffffffffffffffffffffffffffffffffffffffffffff1916827bffffffffffffffffffffffffffffffffffffffffffffffffffffffff1916148061066e575061066d82611189565b5b9050919050565b60606001805461068490612da5565b80601f01602080910402602001604051908101604052809291908181526020018280546106b090612da5565b80156106fd5780601f106106d2576101008083540402835291602001916106fd565b820191906000526020600020905b8154815290600101906020018083116106e057829003601f168201915b5050505050905090565b60006107128261126b565b6005600083815260200190815260200160002060009054906101000a900473ffffffffffffffffffffffffffffffffffffffff169050919050565b600061075882610ab7565b90508073ffffffffffffffffffffffffffffffffffffffff168373ffffffffffffffffffffffffffffffffffffffff16036107c8576040517f08c379a00000000000000000000000000000000000000000000000000000000081526004016107bf90612e48565b60405180910390fd5b8073ffffffffffffffffffffffffffffffffffffffff166107e76112b6565b73ffffffffffffffffffffffffffffffffffffffff1614806108165750610815816108106112b6565b611072565b5b610855576040517f08c379a000000000000000000000000000000000000000000000000000000000815260040161084c90612eda565b60405180910390fd5b61085f83836112be565b505050565b60006108706007611377565b905061087c6007611385565b66038d7ea4c680003410156108c6576040517f08c379a00000000000000000000000000000000000000000000000000000000081526004016108bd90612f46565b60405180910390fd5b6108d0338261139b565b6108d9816115b8565b610918576040517f08c379a000000000000000000000000000000000000000000000000000000000815260040161090f90612fd8565b60405180910390fd5b50565b6000600960009054906101000a900473ffffffffffffffffffffffffffffffffffffffff1673ffffffffffffffffffffffffffffffffffffffff16635e9bc536600a60009054906101000a900473ffffffffffffffffffffffffffffffffffffffff1646308660006040518663ffffffff1660e01b81526004016109a3959493929190613033565b602060405180830381865afa1580156109c0573d6000803e3d6000fd5b505050506040513d601f19601f820116820180604052508101906109e4919061309b565b9050919050565b66038d7ea4c6800081565b610a07610a016112b6565b8261171c565b610a46576040517f08c379a0000000000000000000000000000000000000000000000000000000008152600401610a3d9061313a565b60405180910390fd5b610a518383836117b1565b505050565b600a60009054906101000a900473ffffffffffffffffffffffffffffffffffffffff1681565b610a9783838360405180602001604052806000815250610d3d565b505050565b610aa4611aaa565b8060089081610ab391906132fc565b5050565b600080610ac383611b28565b9050600073ffffffffffffffffffffffffffffffffffffffff168173ffffffffffffffffffffffffffffffffffffffff1603610b34576040517f08c379a0000000000000000000000000000000000000000000000000000000008152600401610b2b9061341a565b60405180910390fd5b80915050919050565b60008073ffffffffffffffffffffffffffffffffffffffff168273ffffffffffffffffffffffffffffffffffffffff1603610bad576040517f08c379a0000000000000000000000000000000000000000000000000000000008152600401610ba4906134ac565b60405180910390fd5b600460008373ffffffffffffffffffffffffffffffffffffffff1673ffffffffffffffffffffffffffffffffffffffff168152602001908152602001600020549050919050565b610bfc611aaa565b610c066000611b65565b565b60008060009054906101000a900473ffffffffffffffffffffffffffffffffffffffff16905090565b6000600c600083815260200190815260200160002060000160149054906101000a900467ffffffffffffffff1667ffffffffffffffff169050919050565b606060028054610c7e90612da5565b80601f0160208091040260200160405190810160405280929190818152602001828054610caa90612da5565b8015610cf75780601f10610ccc57610100808354040283529160200191610cf7565b820191906000526020600020905b815481529060010190602001808311610cda57829003601f168201915b5050505050905090565b610d13610d0c6112b6565b8383611c29565b5050565b600960009054906101000a900473ffffffffffffffffffffffffffffffffffffffff1681565b610d4e610d486112b6565b8361171c565b610d8d576040517f08c379a0000000000000000000000000000000000000000000000000000000008152600401610d849061313a565b60405180910390fd5b610d9984848484611d95565b50505050565b600042600c600084815260200190815260200160002060000160149054906101000a900467ffffffffffffffff1667ffffffffffffffff1610610e1a57600c600083815260200190815260200160002060000160009054906101000a900473ffffffffffffffffffffffffffffffffffffffff169050610e1f565b600090505b919050565b6060610e2f8261126b565b6000610e39611df1565b90506000815111610e595760405180602001604052806000815250610e84565b80610e6384611e83565b604051602001610e74929190613508565b6040516020818303038152906040525b915050919050565b610e96338461171c565b610ed5576040517f08c379a0000000000000000000000000000000000000000000000000000000008152600401610ecc9061359e565b60405180910390fd5b600073ffffffffffffffffffffffffffffffffffffffff16610ef684610d9f565b73ffffffffffffffffffffffffffffffffffffffff1614610f4c576040517f08c379a0000000000000000000000000000000000000000000000000000000008152600401610f439061360a565b60405180910390fd5b428167ffffffffffffffff1611610f98576040517f08c379a0000000000000000000000000000000000000000000000000000000008152600401610f8f90613676565b60405180910390fd5b6000600c60008581526020019081526020016000209050828160000160006101000a81548173ffffffffffffffffffffffffffffffffffffffff021916908373ffffffffffffffffffffffffffffffffffffffff160217905550818160000160146101000a81548167ffffffffffffffff021916908367ffffffffffffffff1602179055508273ffffffffffffffffffffffffffffffffffffffff16847f4e06b4e7000e659094299b3533b47b6aa8ad048e95e872d23d1f4ee55af89cfe8460405161106491906136a5565b60405180910390a350505050565b6000600660008473ffffffffffffffffffffffffffffffffffffffff1673ffffffffffffffffffffffffffffffffffffffff16815260200190815260200160002060008373ffffffffffffffffffffffffffffffffffffffff1673ffffffffffffffffffffffffffffffffffffffff16815260200190815260200160002060009054906101000a900460ff16905092915050565b61110e611aaa565b600073ffffffffffffffffffffffffffffffffffffffff168173ffffffffffffffffffffffffffffffffffffffff160361117d576040517f08c379a000000000000000000000000000000000000000000000000000000000815260040161117490613732565b60405180910390fd5b61118681611b65565b50565b60007f80ac58cd000000000000000000000000000000000000000000000000000000007bffffffffffffffffffffffffffffffffffffffffffffffffffffffff1916827bffffffffffffffffffffffffffffffffffffffffffffffffffffffff1916148061125457507f5b5e139f000000000000000000000000000000000000000000000000000000007bffffffffffffffffffffffffffffffffffffffffffffffffffffffff1916827bffffffffffffffffffffffffffffffffffffffffffffffffffffffff1916145b80611264575061126382611f51565b5b9050919050565b61127481611fbb565b6112b3576040517f08c379a00000000000000000000000000000000000000000000000000000000081526004016112aa9061341a565b60405180910390fd5b50565b600033905090565b816005600083815260200190815260200160002060006101000a81548173ffffffffffffffffffffffffffffffffffffffff021916908373ffffffffffffffffffffffffffffffffffffffff160217905550808273ffffffffffffffffffffffffffffffffffffffff1661133183610ab7565b73ffffffffffffffffffffffffffffffffffffffff167f8c5be1e5ebec7d5bd14f71427d1e84f3dd0314c0f7b2291e5b200ac8c7c3b92560405160405180910390a45050565b600081600001549050919050565b6001816000016000828254019250508190555050565b600073ffffffffffffffffffffffffffffffffffffffff168273ffffffffffffffffffffffffffffffffffffffff160361140a576040517f08c379a00000000000000000000000000000000000000000000000000000000081526004016114019061379e565b60405180910390fd5b61141381611fbb565b15611453576040517f08c379a000000000000000000000000000000000000000000000000000000000815260040161144a9061380a565b60405180910390fd5b611461600083836001611ffc565b61146a81611fbb565b156114aa576040517f08c379a00000000000000000000000000000000000000000000000000000000081526004016114a19061380a565b60405180910390fd5b6001600460008473ffffffffffffffffffffffffffffffffffffffff1673ffffffffffffffffffffffffffffffffffffffff16815260200190815260200160002060008282540192505081905550816003600083815260200190815260200160002060006101000a81548173ffffffffffffffffffffffffffffffffffffffff021916908373ffffffffffffffffffffffffffffffffffffffff160217905550808273ffffffffffffffffffffffffffffffffffffffff16600073ffffffffffffffffffffffffffffffffffffffff167fddf252ad1be2c89b69c2b068fc378daa952ba7f163c4a11628f55a4df523b3ef60405160405180910390a46115b460008383600161219c565b5050565b6000600960009054906101000a900473ffffffffffffffffffffffffffffffffffffffff1673ffffffffffffffffffffffffffffffffffffffff1663da7323b3600a60009054906101000a900473ffffffffffffffffffffffffffffffffffffffff1646308660003360405160240161163191906127ea565b6040516020818303038152906040527f8129fc1c000000000000000000000000000000000000000000000000000000007bffffffffffffffffffffffffffffffffffffffffffffffffffffffff19166020820180517bffffffffffffffffffffffffffffffffffffffffffffffffffffffff83818316178352505050506040518763ffffffff1660e01b81526004016116cf9695949392919061387f565b6020604051808303816000875af11580156116ee573d6000803e3d6000fd5b505050506040513d601f19601f82011682018060405250810190611712919061309b565b5060019050919050565b60008061172883610ab7565b90508073ffffffffffffffffffffffffffffffffffffffff168473ffffffffffffffffffffffffffffffffffffffff16148061176a57506117698185611072565b5b806117a857508373ffffffffffffffffffffffffffffffffffffffff1661179084610707565b73ffffffffffffffffffffffffffffffffffffffff16145b91505092915050565b8273ffffffffffffffffffffffffffffffffffffffff166117d182610ab7565b73ffffffffffffffffffffffffffffffffffffffff1614611827576040517f08c379a000000000000000000000000000000000000000000000000000000000815260040161181e90613959565b60405180910390fd5b600073ffffffffffffffffffffffffffffffffffffffff168273ffffffffffffffffffffffffffffffffffffffff1603611896576040517f08c379a000000000000000000000000000000000000000000000000000000000815260040161188d906139eb565b60405180910390fd5b6118a38383836001611ffc565b8273ffffffffffffffffffffffffffffffffffffffff166118c382610ab7565b73ffffffffffffffffffffffffffffffffffffffff1614611919576040517f08c379a000000000000000000000000000000000000000000000000000000000815260040161191090613959565b60405180910390fd5b6005600082815260200190815260200160002060006101000a81549073ffffffffffffffffffffffffffffffffffffffff02191690556001600460008573ffffffffffffffffffffffffffffffffffffffff1673ffffffffffffffffffffffffffffffffffffffff168152602001908152602001600020600082825403925050819055506001600460008473ffffffffffffffffffffffffffffffffffffffff1673ffffffffffffffffffffffffffffffffffffffff16815260200190815260200160002060008282540192505081905550816003600083815260200190815260200160002060006101000a81548173ffffffffffffffffffffffffffffffffffffffff021916908373ffffffffffffffffffffffffffffffffffffffff160217905550808273ffffffffffffffffffffffffffffffffffffffff168473ffffffffffffffffffffffffffffffffffffffff167fddf252ad1be2c89b69c2b068fc378daa952ba7f163c4a11628f55a4df523b3ef60405160405180910390a4611aa5838383600161219c565b505050565b611ab26112b6565b73ffffffffffffffffffffffffffffffffffffffff16611ad0610c08565b73ffffffffffffffffffffffffffffffffffffffff1614611b26576040517f08c379a0000000000000000000000000000000000000000000000000000000008152600401611b1d90613a57565b60405180910390fd5b565b60006003600083815260200190815260200160002060009054906101000a900473ffffffffffffffffffffffffffffffffffffffff169050919050565b60008060009054906101000a900473ffffffffffffffffffffffffffffffffffffffff169050816000806101000a81548173ffffffffffffffffffffffffffffffffffffffff021916908373ffffffffffffffffffffffffffffffffffffffff1602179055508173ffffffffffffffffffffffffffffffffffffffff168173ffffffffffffffffffffffffffffffffffffffff167f8be0079c531659141344cd1fd0a4f28419497f9722a3daafe3b4186f6b6457e060405160405180910390a35050565b8173ffffffffffffffffffffffffffffffffffffffff168373ffffffffffffffffffffffffffffffffffffffff1603611c97576040517f08c379a0000000000000000000000000000000000000000000000000000000008152600401611c8e90613ac3565b60405180910390fd5b80600660008573ffffffffffffffffffffffffffffffffffffffff1673ffffffffffffffffffffffffffffffffffffffff16815260200190815260200160002060008473ffffffffffffffffffffffffffffffffffffffff1673ffffffffffffffffffffffffffffffffffffffff16815260200190815260200160002060006101000a81548160ff0219169083151502179055508173ffffffffffffffffffffffffffffffffffffffff168373ffffffffffffffffffffffffffffffffffffffff167f17307eab39ab6107e8899845ad3d59bd9653f200f220920489ca2b5937696c3183604051611d889190612679565b60405180910390a3505050565b611da08484846117b1565b611dac848484846121a2565b611deb576040517f08c379a0000000000000000000000000000000000000000000000000000000008152600401611de290613b55565b60405180910390fd5b50505050565b606060088054611e0090612da5565b80601f0160208091040260200160405190810160405280929190818152602001828054611e2c90612da5565b8015611e795780601f10611e4e57610100808354040283529160200191611e79565b820191906000526020600020905b815481529060010190602001808311611e5c57829003601f168201915b5050505050905090565b606060006001611e9284612329565b01905060008167ffffffffffffffff811115611eb157611eb06128f8565b5b6040519080825280601f01601f191660200182016040528015611ee35781602001600182028036833780820191505090505b509050600082602001820190505b600115611f46578080600190039150507f3031323334353637383961626364656600000000000000000000000000000000600a86061a8153600a8581611f3a57611f39613b75565b5b04945060008503611ef1575b819350505050919050565b60007f01ffc9a7000000000000000000000000000000000000000000000000000000007bffffffffffffffffffffffffffffffffffffffffffffffffffffffff1916827bffffffffffffffffffffffffffffffffffffffffffffffffffffffff1916149050919050565b60008073ffffffffffffffffffffffffffffffffffffffff16611fdd83611b28565b73ffffffffffffffffffffffffffffffffffffffff1614159050919050565b6120088484848461247c565b8273ffffffffffffffffffffffffffffffffffffffff168473ffffffffffffffffffffffffffffffffffffffff16141580156120a75750600073ffffffffffffffffffffffffffffffffffffffff16600c600084815260200190815260200160002060000160009054906101000a900473ffffffffffffffffffffffffffffffffffffffff1673ffffffffffffffffffffffffffffffffffffffff1614155b80156120e75750600c600083815260200190815260200160002060000160149054906101000a900467ffffffffffffffff1667ffffffffffffffff164210155b1561219657600c6000838152602001908152602001600020600080820160006101000a81549073ffffffffffffffffffffffffffffffffffffffff02191690556000820160146101000a81549067ffffffffffffffff02191690555050600073ffffffffffffffffffffffffffffffffffffffff16827f4e06b4e7000e659094299b3533b47b6aa8ad048e95e872d23d1f4ee55af89cfe600060405161218d9190613bd5565b60405180910390a35b50505050565b50505050565b60006121c38473ffffffffffffffffffffffffffffffffffffffff166125a2565b1561231c578373ffffffffffffffffffffffffffffffffffffffff1663150b7a026121ec6112b6565b8786866040518563ffffffff1660e01b815260040161220e9493929190613bf0565b6020604051808303816000875af192505050801561224a57506040513d601f19601f820116820180604052508101906122479190613c51565b60015b6122cc573d806000811461227a576040519150601f19603f3d011682016040523d82523d6000602084013e61227f565b606091505b5060008151036122c4576040517f08c379a00000000000000000000000000000000000000000000000000000000081526004016122bb90613b55565b60405180910390fd5b805181602001fd5b63150b7a0260e01b7bffffffffffffffffffffffffffffffffffffffffffffffffffffffff1916817bffffffffffffffffffffffffffffffffffffffffffffffffffffffff191614915050612321565b600190505b949350505050565b600080600090507a184f03e93ff9f4daa797ed6e38ed64bf6a1f0100000000000000008310612387577a184f03e93ff9f4daa797ed6e38ed64bf6a1f010000000000000000838161237d5761237c613b75565b5b0492506040810190505b6d04ee2d6d415b85acef810000000083106123c4576d04ee2d6d415b85acef810000000083816123ba576123b9613b75565b5b0492506020810190505b662386f26fc1000083106123f357662386f26fc1000083816123e9576123e8613b75565b5b0492506010810190505b6305f5e100831061241c576305f5e100838161241257612411613b75565b5b0492506008810190505b612710831061244157612710838161243757612436613b75565b5b0492506004810190505b60648310612464576064838161245a57612459613b75565b5b0492506002810190505b600a8310612473576001810190505b80915050919050565b600181111561259c57600073ffffffffffffffffffffffffffffffffffffffff168473ffffffffffffffffffffffffffffffffffffffff16146125105780600460008673ffffffffffffffffffffffffffffffffffffffff1673ffffffffffffffffffffffffffffffffffffffff16815260200190815260200160002060008282546125089190613cad565b925050819055505b600073ffffffffffffffffffffffffffffffffffffffff168373ffffffffffffffffffffffffffffffffffffffff161461259b5780600460008573ffffffffffffffffffffffffffffffffffffffff1673ffffffffffffffffffffffffffffffffffffffff16815260200190815260200160002060008282546125939190613ce1565b925050819055505b5b50505050565b6000808273ffffffffffffffffffffffffffffffffffffffff163b119050919050565b6000604051905090565b600080fd5b600080fd5b60007fffffffff0000000000000000000000000000000000000000000000000000000082169050919050565b61260e816125d9565b811461261957600080fd5b50565b60008135905061262b81612605565b92915050565b600060208284031215612647576126466125cf565b5b60006126558482850161261c565b91505092915050565b60008115159050919050565b6126738161265e565b82525050565b600060208201905061268e600083018461266a565b92915050565b600081519050919050565b600082825260208201905092915050565b60005b838110156126ce5780820151818401526020810190506126b3565b60008484015250505050565b6000601f19601f8301169050919050565b60006126f682612694565b612700818561269f565b93506127108185602086016126b0565b612719816126da565b840191505092915050565b6000602082019050818103600083015261273e81846126eb565b905092915050565b6000819050919050565b61275981612746565b811461276457600080fd5b50565b60008135905061277681612750565b92915050565b600060208284031215612792576127916125cf565b5b60006127a084828501612767565b91505092915050565b600073ffffffffffffffffffffffffffffffffffffffff82169050919050565b60006127d4826127a9565b9050919050565b6127e4816127c9565b82525050565b60006020820190506127ff60008301846127db565b92915050565b61280e816127c9565b811461281957600080fd5b50565b60008135905061282b81612805565b92915050565b60008060408385031215612848576128476125cf565b5b60006128568582860161281c565b925050602061286785828601612767565b9150509250929050565b61287a81612746565b82525050565b60006020820190506128956000830184612871565b92915050565b6000806000606084860312156128b4576128b36125cf565b5b60006128c28682870161281c565b93505060206128d38682870161281c565b92505060406128e486828701612767565b9150509250925092565b600080fd5b600080fd5b7f4e487b7100000000000000000000000000000000000000000000000000000000600052604160045260246000fd5b612930826126da565b810181811067ffffffffffffffff8211171561294f5761294e6128f8565b5b80604052505050565b60006129626125c5565b905061296e8282612927565b919050565b600067ffffffffffffffff82111561298e5761298d6128f8565b5b612997826126da565b9050602081019050919050565b82818337600083830152505050565b60006129c66129c184612973565b612958565b9050828152602081018484840111156129e2576129e16128f3565b5b6129ed8482856129a4565b509392505050565b600082601f830112612a0a57612a096128ee565b5b8135612a1a8482602086016129b3565b91505092915050565b600060208284031215612a3957612a386125cf565b5b600082013567ffffffffffffffff811115612a5757612a566125d4565b5b612a63848285016129f5565b91505092915050565b600060208284031215612a8257612a816125cf565b5b6000612a908482850161281c565b91505092915050565b612aa28161265e565b8114612aad57600080fd5b50565b600081359050612abf81612a99565b92915050565b60008060408385031215612adc57612adb6125cf565b5b6000612aea8582860161281c565b9250506020612afb85828601612ab0565b9150509250929050565b6000819050919050565b6000612b2a612b25612b20846127a9565b612b05565b6127a9565b9050919050565b6000612b3c82612b0f565b9050919050565b6000612b4e82612b31565b9050919050565b612b5e81612b43565b82525050565b6000602082019050612b796000830184612b55565b92915050565b600067ffffffffffffffff821115612b9a57612b996128f8565b5b612ba3826126da565b9050602081019050919050565b6000612bc3612bbe84612b7f565b612958565b905082815260208101848484011115612bdf57612bde6128f3565b5b612bea8482856129a4565b509392505050565b600082601f830112612c0757612c066128ee565b5b8135612c17848260208601612bb0565b91505092915050565b60008060008060808587031215612c3a57612c396125cf565b5b6000612c488782880161281c565b9450506020612c598782880161281c565b9350506040612c6a87828801612767565b925050606085013567ffffffffffffffff811115612c8b57612c8a6125d4565b5b612c9787828801612bf2565b91505092959194509250565b600067ffffffffffffffff82169050919050565b612cc081612ca3565b8114612ccb57600080fd5b50565b600081359050612cdd81612cb7565b92915050565b600080600060608486031215612cfc57612cfb6125cf565b5b6000612d0a86828701612767565b9350506020612d1b8682870161281c565b9250506040612d2c86828701612cce565b9150509250925092565b60008060408385031215612d4d57612d4c6125cf565b5b6000612d5b8582860161281c565b9250506020612d6c8582860161281c565b9150509250929050565b7f4e487b7100000000000000000000000000000000000000000000000000000000600052602260045260246000fd5b60006002820490506001821680612dbd57607f821691505b602082108103612dd057612dcf612d76565b5b50919050565b7f4552433732313a20617070726f76616c20746f2063757272656e74206f776e6560008201527f7200000000000000000000000000000000000000000000000000000000000000602082015250565b6000612e3260218361269f565b9150612e3d82612dd6565b604082019050919050565b60006020820190508181036000830152612e6181612e25565b9050919050565b7f4552433732313a20617070726f76652063616c6c6572206973206e6f7420746f60008201527f6b656e206f776e6572206f7220617070726f76656420666f7220616c6c000000602082015250565b6000612ec4603d8361269f565b9150612ecf82612e68565b604082019050919050565b60006020820190508181036000830152612ef381612eb7565b9050919050565b7f47616d65426173654e46543a20696e73756666696369656e742066756e647300600082015250565b6000612f30601f8361269f565b9150612f3b82612efa565b602082019050919050565b60006020820190508181036000830152612f5f81612f23565b9050919050565b7f47616d65426173654e46543a206661696c656420746f2063726561746520616360008201527f636f756e74000000000000000000000000000000000000000000000000000000602082015250565b6000612fc260258361269f565b9150612fcd82612f66565b604082019050919050565b60006020820190508181036000830152612ff181612fb5565b9050919050565b6000819050919050565b600061301d61301861301384612ff8565b612b05565b612746565b9050919050565b61302d81613002565b82525050565b600060a08201905061304860008301886127db565b6130556020830187612871565b61306260408301866127db565b61306f6060830185612871565b61307c6080830184613024565b9695505050505050565b60008151905061309581612805565b92915050565b6000602082840312156130b1576130b06125cf565b5b60006130bf84828501613086565b91505092915050565b7f4552433732313a2063616c6c6572206973206e6f7420746f6b656e206f776e6560008201527f72206f7220617070726f76656400000000000000000000000000000000000000602082015250565b6000613124602d8361269f565b915061312f826130c8565b604082019050919050565b6000602082019050818103600083015261315381613117565b9050919050565b60008190508160005260206000209050919050565b60006020601f8301049050919050565b600082821b905092915050565b6000600883026131bc7fffffffffffffffffffffffffffffffffffffffffffffffffffffffffffffffff8261317f565b6131c6868361317f565b95508019841693508086168417925050509392505050565b60006131f96131f46131ef84612746565b612b05565b612746565b9050919050565b6000819050919050565b613213836131de565b61322761321f82613200565b84845461318c565b825550505050565b600090565b61323c61322f565b61324781848461320a565b505050565b5b8181101561326b57613260600082613234565b60018101905061324d565b5050565b601f8211156132b0576132818161315a565b61328a8461316f565b81016020851015613299578190505b6132ad6132a58561316f565b83018261324c565b50505b505050565b600082821c905092915050565b60006132d3600019846008026132b5565b1980831691505092915050565b60006132ec83836132c2565b9150826002028217905092915050565b61330582612694565b67ffffffffffffffff81111561331e5761331d6128f8565b5b6133288254612da5565b61333382828561326f565b600060209050601f8311600181146133665760008415613354578287015190505b61335e85826132e0565b8655506133c6565b601f1984166133748661315a565b60005b8281101561339c57848901518255600182019150602085019450602081019050613377565b868310156133b957848901516133b5601f8916826132c2565b8355505b6001600288020188555050505b505050505050565b7f4552433732313a20696e76616c696420746f6b656e2049440000000000000000600082015250565b600061340460188361269f565b915061340f826133ce565b602082019050919050565b60006020820190508181036000830152613433816133f7565b9050919050565b7f4552433732313a2061646472657373207a65726f206973206e6f74206120766160008201527f6c6964206f776e65720000000000000000000000000000000000000000000000602082015250565b600061349660298361269f565b91506134a18261343a565b604082019050919050565b600060208201905081810360008301526134c581613489565b9050919050565b600081905092915050565b60006134e282612694565b6134ec81856134cc565b93506134fc8185602086016126b0565b80840191505092915050565b600061351482856134d7565b915061352082846134d7565b91508190509392505050565b7f4552433732313a207472616e736665722063616c6c6572206973206e6f74206f60008201527f776e6572206e6f7220617070726f766564000000000000000000000000000000602082015250565b600061358860318361269f565b91506135938261352c565b604082019050919050565b600060208201905081810360008301526135b78161357b565b9050919050565b7f5573657220616c72656164792061737369676e65640000000000000000000000600082015250565b60006135f460158361269f565b91506135ff826135be565b602082019050919050565b60006020820190508181036000830152613623816135e7565b9050919050565b7f657870697265732073686f756c6420626520696e206675747572650000000000600082015250565b6000613660601b8361269f565b915061366b8261362a565b602082019050919050565b6000602082019050818103600083015261368f81613653565b9050919050565b61369f81612ca3565b82525050565b60006020820190506136ba6000830184613696565b92915050565b7f4f776e61626c653a206e6577206f776e657220697320746865207a65726f206160008201527f6464726573730000000000000000000000000000000000000000000000000000602082015250565b600061371c60268361269f565b9150613727826136c0565b604082019050919050565b6000602082019050818103600083015261374b8161370f565b9050919050565b7f4552433732313a206d696e7420746f20746865207a65726f2061646472657373600082015250565b600061378860208361269f565b915061379382613752565b602082019050919050565b600060208201905081810360008301526137b78161377b565b9050919050565b7f4552433732313a20746f6b656e20616c7265616479206d696e74656400000000600082015250565b60006137f4601c8361269f565b91506137ff826137be565b602082019050919050565b60006020820190508181036000830152613823816137e7565b9050919050565b600081519050919050565b600082825260208201905092915050565b60006138518261382a565b61385b8185613835565b935061386b8185602086016126b0565b613874816126da565b840191505092915050565b600060c08201905061389460008301896127db565b6138a16020830188612871565b6138ae60408301876127db565b6138bb6060830186612871565b6138c86080830185613024565b81810360a08301526138da8184613846565b9050979650505050505050565b7f4552433732313a207472616e736665722066726f6d20696e636f72726563742060008201527f6f776e6572000000000000000000000000000000000000000000000000000000602082015250565b600061394360258361269f565b915061394e826138e7565b604082019050919050565b6000602082019050818103600083015261397281613936565b9050919050565b7f4552433732313a207472616e7366657220746f20746865207a65726f2061646460008201527f7265737300000000000000000000000000000000000000000000000000000000602082015250565b60006139d560248361269f565b91506139e082613979565b604082019050919050565b60006020820190508181036000830152613a04816139c8565b9050919050565b7f4f776e61626c653a2063616c6c6572206973206e6f7420746865206f776e6572600082015250565b6000613a4160208361269f565b9150613a4c82613a0b565b602082019050919050565b60006020820190508181036000830152613a7081613a34565b9050919050565b7f4552433732313a20617070726f766520746f2063616c6c657200000000000000600082015250565b6000613aad60198361269f565b9150613ab882613a77565b602082019050919050565b60006020820190508181036000830152613adc81613aa0565b9050919050565b7f4552433732313a207472616e7366657220746f206e6f6e20455243373231526560008201527f63656976657220696d706c656d656e7465720000000000000000000000000000602082015250565b6000613b3f60328361269f565b9150613b4a82613ae3565b604082019050919050565b60006020820190508181036000830152613b6e81613b32565b9050919050565b7f4e487b7100000000000000000000000000000000000000000000000000000000600052601260045260246000fd5b6000613bbf613bba613bb584612ff8565b612b05565b612ca3565b9050919050565b613bcf81613ba4565b82525050565b6000602082019050613bea6000830184613bc6565b92915050565b6000608082019050613c0560008301876127db565b613c1260208301866127db565b613c1f6040830185612871565b8181036060830152613c318184613846565b905095945050505050565b600081519050613c4b81612605565b92915050565b600060208284031215613c6757613c666125cf565b5b6000613c7584828501613c3c565b91505092915050565b7f4e487b7100000000000000000000000000000000000000000000000000000000600052601160045260246000fd5b6000613cb882612746565b9150613cc383612746565b9250828203905081811115613cdb57613cda613c7e565b5b92915050565b6000613cec82612746565b9150613cf783612746565b9250828201905080821115613d0f57613d0e613c7e565b5b9291505056fea2646970667358221220fdca5eed991a3dda9c9147d9c7fb4bd9dc16346088f7d81b2312674dafe36de164736f6c63430008120033",
  "devdoc": {
    "events": {
      "Approval(address,address,uint256)": {
        "details": "Emitted when `owner` enables `approved` to manage the `tokenId` token."
      },
      "ApprovalForAll(address,address,bool)": {
        "details": "Emitted when `owner` enables or disables (`approved`) `operator` to manage all of its assets."
      },
      "BatchMetadataUpdate(uint256,uint256)": {
        "details": "This event emits when the metadata of a range of tokens is changed. So that the third-party platforms such as NFT market could timely update the images and related attributes of the NFTs."
      },
      "MetadataUpdate(uint256)": {
        "details": "This event emits when the metadata of a token is changed. Third-party platforms such as NFT marketplaces can listen to the event and auto-update the tokens in their apps."
      },
      "Transfer(address,address,uint256)": {
        "details": "Emitted when `tokenId` token is transferred from `from` to `to`."
      }
    },
    "kind": "dev",
    "methods": {
      "approve(address,uint256)": {
        "details": "See {IERC721-approve}."
      },
      "balanceOf(address)": {
        "details": "See {IERC721-balanceOf}."
      },
      "getApproved(uint256)": {
        "details": "See {IERC721-getApproved}."
      },
      "isApprovedForAll(address,address)": {
        "details": "See {IERC721-isApprovedForAll}."
      },
      "name()": {
        "details": "See {IERC721Metadata-name}."
      },
      "owner()": {
        "details": "Returns the address of the current owner."
      },
      "ownerOf(uint256)": {
        "details": "See {IERC721-ownerOf}."
      },
      "renounceOwnership()": {
        "details": "Leaves the contract without owner. It will not be possible to call `onlyOwner` functions anymore. Can only be called by the current owner. NOTE: Renouncing ownership will leave the contract without an owner, thereby removing any functionality that is only available to the owner."
      },
      "safeTransferFrom(address,address,uint256)": {
        "details": "See {IERC721-safeTransferFrom}."
      },
      "safeTransferFrom(address,address,uint256,bytes)": {
        "details": "See {IERC721-safeTransferFrom}."
      },
      "setApprovalForAll(address,bool)": {
        "details": "See {IERC721-setApprovalForAll}."
      },
      "setUser(uint256,address,uint64)": {
        "details": "The zero address indicates there is no user  Throws if `tokenId` is not valid NFT",
        "params": {
          "expires": "UNIX timestamp, The new user could use the NFT before expires",
          "user": "The new user of the NFT"
        }
      },
      "symbol()": {
        "details": "See {IERC721Metadata-symbol}."
      },
      "tokenURI(uint256)": {
        "details": "See {IERC721Metadata-tokenURI}."
      },
      "transferFrom(address,address,uint256)": {
        "details": "See {IERC721-transferFrom}."
      },
      "transferOwnership(address)": {
        "details": "Transfers ownership of the contract to a new account (`newOwner`). Can only be called by the current owner."
      },
      "userExpires(uint256)": {
        "details": "The zero value indicates that there is no user",
        "params": {
          "tokenId": "The NFT to get the user expires for"
        },
        "returns": {
          "_0": "The user expires for this NFT"
        }
      },
      "userOf(uint256)": {
        "details": "The zero address indicates that there is no user or the user is expired",
        "params": {
          "tokenId": "The NFT to get the user address for"
        },
        "returns": {
          "_0": "The user address for this NFT"
        }
      }
    },
    "version": 1
  },
  "userdoc": {
    "events": {
      "UpdateUser(uint256,address,uint64)": {
        "notice": "Emitted when the `user` of an NFT or the `expires` of the `user` is changed The zero address for user indicates that there is no user address"
      }
    },
    "kind": "user",
    "methods": {
      "setUser(uint256,address,uint64)": {
        "notice": "set the user and expires of a NFT"
      },
      "userExpires(uint256)": {
        "notice": "Get the user expires of an NFT"
      },
      "userOf(uint256)": {
        "notice": "Get the user address of an NFT"
      }
    },
    "version": 1
  },
  "storageLayout": {
    "storage": [
      {
        "astId": 7,
        "contract": "contracts/ERC4907/GameBaseNFT.sol:GameBaseNFT",
        "label": "_owner",
        "offset": 0,
        "slot": "0",
        "type": "t_address"
      },
      {
        "astId": 2351,
        "contract": "contracts/ERC4907/GameBaseNFT.sol:GameBaseNFT",
        "label": "_name",
        "offset": 0,
        "slot": "1",
        "type": "t_string_storage"
      },
      {
        "astId": 2353,
        "contract": "contracts/ERC4907/GameBaseNFT.sol:GameBaseNFT",
        "label": "_symbol",
        "offset": 0,
        "slot": "2",
        "type": "t_string_storage"
      },
      {
        "astId": 2357,
        "contract": "contracts/ERC4907/GameBaseNFT.sol:GameBaseNFT",
        "label": "_owners",
        "offset": 0,
        "slot": "3",
        "type": "t_mapping(t_uint256,t_address)"
      },
      {
        "astId": 2361,
        "contract": "contracts/ERC4907/GameBaseNFT.sol:GameBaseNFT",
        "label": "_balances",
        "offset": 0,
        "slot": "4",
        "type": "t_mapping(t_address,t_uint256)"
      },
      {
        "astId": 2365,
        "contract": "contracts/ERC4907/GameBaseNFT.sol:GameBaseNFT",
        "label": "_tokenApprovals",
        "offset": 0,
        "slot": "5",
        "type": "t_mapping(t_uint256,t_address)"
      },
      {
        "astId": 2371,
        "contract": "contracts/ERC4907/GameBaseNFT.sol:GameBaseNFT",
        "label": "_operatorApprovals",
        "offset": 0,
        "slot": "6",
        "type": "t_mapping(t_address,t_mapping(t_address,t_bool))"
      },
      {
        "astId": 6236,
        "contract": "contracts/ERC4907/GameBaseNFT.sol:GameBaseNFT",
        "label": "_tokenIds",
        "offset": 0,
        "slot": "7",
        "type": "t_struct(Counter)4299_storage"
      },
      {
        "astId": 6241,
        "contract": "contracts/ERC4907/GameBaseNFT.sol:GameBaseNFT",
        "label": "baseURI",
        "offset": 0,
        "slot": "8",
        "type": "t_string_storage"
      },
      {
        "astId": 6244,
        "contract": "contracts/ERC4907/GameBaseNFT.sol:GameBaseNFT",
        "label": "ERC6551Registry",
        "offset": 0,
        "slot": "9",
        "type": "t_contract(IERC6551Registry)6221"
      },
      {
        "astId": 6246,
        "contract": "contracts/ERC4907/GameBaseNFT.sol:GameBaseNFT",
        "label": "ERC6551AccountImplementation",
        "offset": 0,
        "slot": "10",
        "type": "t_address"
      },
      {
        "astId": 6250,
        "contract": "contracts/ERC4907/GameBaseNFT.sol:GameBaseNFT",
        "label": "_tokenImageURIs",
        "offset": 0,
        "slot": "11",
        "type": "t_mapping(t_uint256,t_string_storage)"
      },
      {
        "astId": 6404,
        "contract": "contracts/ERC4907/GameBaseNFT.sol:GameBaseNFT",
        "label": "_users",
        "offset": 0,
        "slot": "12",
        "type": "t_mapping(t_uint256,t_struct(UserInfo)6399_storage)"
      }
    ],
    "types": {
      "t_address": {
        "encoding": "inplace",
        "label": "address",
        "numberOfBytes": "20"
      },
      "t_bool": {
        "encoding": "inplace",
        "label": "bool",
        "numberOfBytes": "1"
      },
      "t_contract(IERC6551Registry)6221": {
        "encoding": "inplace",
        "label": "contract IERC6551Registry",
        "numberOfBytes": "20"
      },
      "t_mapping(t_address,t_bool)": {
        "encoding": "mapping",
        "key": "t_address",
        "label": "mapping(address => bool)",
        "numberOfBytes": "32",
        "value": "t_bool"
      },
      "t_mapping(t_address,t_mapping(t_address,t_bool))": {
        "encoding": "mapping",
        "key": "t_address",
        "label": "mapping(address => mapping(address => bool))",
        "numberOfBytes": "32",
        "value": "t_mapping(t_address,t_bool)"
      },
      "t_mapping(t_address,t_uint256)": {
        "encoding": "mapping",
        "key": "t_address",
        "label": "mapping(address => uint256)",
        "numberOfBytes": "32",
        "value": "t_uint256"
      },
      "t_mapping(t_uint256,t_address)": {
        "encoding": "mapping",
        "key": "t_uint256",
        "label": "mapping(uint256 => address)",
        "numberOfBytes": "32",
        "value": "t_address"
      },
      "t_mapping(t_uint256,t_string_storage)": {
        "encoding": "mapping",
        "key": "t_uint256",
        "label": "mapping(uint256 => string)",
        "numberOfBytes": "32",
        "value": "t_string_storage"
      },
      "t_mapping(t_uint256,t_struct(UserInfo)6399_storage)": {
        "encoding": "mapping",
        "key": "t_uint256",
        "label": "mapping(uint256 => struct GameBaseNFT.UserInfo)",
        "numberOfBytes": "32",
        "value": "t_struct(UserInfo)6399_storage"
      },
      "t_string_storage": {
        "encoding": "bytes",
        "label": "string",
        "numberOfBytes": "32"
      },
      "t_struct(Counter)4299_storage": {
        "encoding": "inplace",
        "label": "struct Counters.Counter",
        "members": [
          {
            "astId": 4298,
            "contract": "contracts/ERC4907/GameBaseNFT.sol:GameBaseNFT",
            "label": "_value",
            "offset": 0,
            "slot": "0",
            "type": "t_uint256"
          }
        ],
        "numberOfBytes": "32"
      },
      "t_struct(UserInfo)6399_storage": {
        "encoding": "inplace",
        "label": "struct GameBaseNFT.UserInfo",
        "members": [
          {
            "astId": 6396,
            "contract": "contracts/ERC4907/GameBaseNFT.sol:GameBaseNFT",
            "label": "user",
            "offset": 0,
            "slot": "0",
            "type": "t_address"
          },
          {
            "astId": 6398,
            "contract": "contracts/ERC4907/GameBaseNFT.sol:GameBaseNFT",
            "label": "expires",
            "offset": 20,
            "slot": "0",
            "type": "t_uint64"
          }
        ],
        "numberOfBytes": "32"
      },
      "t_uint256": {
        "encoding": "inplace",
        "label": "uint256",
        "numberOfBytes": "32"
      },
      "t_uint64": {
        "encoding": "inplace",
        "label": "uint64",
        "numberOfBytes": "8"
      }
    }
  }
}